{
  "contractName": "BulkDistributorRole",
  "abi": [
    {
      "inputs": [],
      "payable": false,
      "stateMutability": "nonpayable",
      "type": "constructor"
    },
    {
      "anonymous": false,
      "inputs": [
        {
          "indexed": true,
          "name": "account",
          "type": "address"
        }
      ],
      "name": "bulkDistributorAdded",
      "type": "event"
    },
    {
      "anonymous": false,
      "inputs": [
        {
          "indexed": true,
          "name": "account",
          "type": "address"
        }
      ],
      "name": "bulkDistributorRemoved",
      "type": "event"
    },
    {
      "constant": true,
      "inputs": [
        {
          "name": "account",
          "type": "address"
        }
      ],
      "name": "isbulkDistributor",
      "outputs": [
        {
          "name": "",
          "type": "bool"
        }
      ],
      "payable": false,
      "stateMutability": "view",
      "type": "function"
    },
    {
      "constant": false,
      "inputs": [
        {
          "name": "account",
          "type": "address"
        }
      ],
      "name": "addbulkDistributor",
      "outputs": [],
      "payable": false,
      "stateMutability": "nonpayable",
      "type": "function"
    },
    {
      "constant": false,
      "inputs": [],
      "name": "renounceBulkDistributor",
      "outputs": [],
      "payable": false,
      "stateMutability": "nonpayable",
      "type": "function"
    }
  ],
  "bytecode": "0x608060405234801561001057600080fd5b506100293361002e640100000000026401000000009004565b6101e8565b61004f816000610095640100000000026102a1179091906401000000009004565b8073ffffffffffffffffffffffffffffffffffffffff167f6ee1762321178bc62a9ea01fa8276d2ff93aed38685cf95ffefc5b3734fae8d560405160405180910390a250565b600073ffffffffffffffffffffffffffffffffffffffff168173ffffffffffffffffffffffffffffffffffffffff16141515156100d157600080fd5b6100ea8282610154640100000000026401000000009004565b1515156100f657600080fd5b60018260000160008373ffffffffffffffffffffffffffffffffffffffff1673ffffffffffffffffffffffffffffffffffffffff16815260200190815260200160002060006101000a81548160ff0219169083151502179055505050565b60008073ffffffffffffffffffffffffffffffffffffffff168273ffffffffffffffffffffffffffffffffffffffff161415151561019157600080fd5b8260000160008373ffffffffffffffffffffffffffffffffffffffff1673ffffffffffffffffffffffffffffffffffffffff16815260200190815260200160002060009054906101000a900460ff16905092915050565b61042c806101f76000396000f300608060405260043610610057576000357c0100000000000000000000000000000000000000000000000000000000900463ffffffff168063492014b51461005c578063d829e069146100b7578063e73cdc41146100fa575b600080fd5b34801561006857600080fd5b5061009d600480360381019080803573ffffffffffffffffffffffffffffffffffffffff169060200190929190505050610111565b604051808215151515815260200191505060405180910390f35b3480156100c357600080fd5b506100f8600480360381019080803573ffffffffffffffffffffffffffffffffffffffff16906020019092919050505061012e565b005b34801561010657600080fd5b5061010f61014e565b005b600061012782600061015990919063ffffffff16565b9050919050565b61013733610111565b151561014257600080fd5b61014b816101ed565b50565b61015733610247565b565b60008073ffffffffffffffffffffffffffffffffffffffff168273ffffffffffffffffffffffffffffffffffffffff161415151561019657600080fd5b8260000160008373ffffffffffffffffffffffffffffffffffffffff1673ffffffffffffffffffffffffffffffffffffffff16815260200190815260200160002060009054906101000a900460ff16905092915050565b6102018160006102a190919063ffffffff16565b8073ffffffffffffffffffffffffffffffffffffffff167f6ee1762321178bc62a9ea01fa8276d2ff93aed38685cf95ffefc5b3734fae8d560405160405180910390a250565b61025b81600061035190919063ffffffff16565b8073ffffffffffffffffffffffffffffffffffffffff167f6ee1762321178bc62a9ea01fa8276d2ff93aed38685cf95ffefc5b3734fae8d560405160405180910390a250565b600073ffffffffffffffffffffffffffffffffffffffff168173ffffffffffffffffffffffffffffffffffffffff16141515156102dd57600080fd5b6102e78282610159565b1515156102f357600080fd5b60018260000160008373ffffffffffffffffffffffffffffffffffffffff1673ffffffffffffffffffffffffffffffffffffffff16815260200190815260200160002060006101000a81548160ff0219169083151502179055505050565b600073ffffffffffffffffffffffffffffffffffffffff168173ffffffffffffffffffffffffffffffffffffffff161415151561038d57600080fd5b6103978282610159565b15156103a257600080fd5b60008260000160008373ffffffffffffffffffffffffffffffffffffffff1673ffffffffffffffffffffffffffffffffffffffff16815260200190815260200160002060006101000a81548160ff02191690831515021790555050505600a165627a7a723058206cbb1a8a6ed4f155a770ca7c4c3b4c3f15c12c23e39ea0ebac1d2a8d001ee2900029",
  "source": "pragma solidity ^0.4.24;\r\n\r\n// Import the library 'Roles'\r\nimport \"./Roles.sol\";\r\n\r\n// Define a contract 'FarmerRole' to manage this role - add, remove, check\r\ncontract BulkDistributorRole {\r\n  using Roles for Roles.Role;\r\n\r\n  // Define 2 events, one for Adding, and other for Removing\r\n  event bulkDistributorAdded(address indexed account);\r\n  event bulkDistributorRemoved(address indexed account);\r\n\r\n  // Define a struct 'bulkDistributors' by inheriting from 'Roles' library, struct Role\r\n  Roles.Role private bulkDistributors;\r\n\r\n  // In the constructor make the address that deploys this contract the 1st bulkDistributor\r\n  constructor() public {\r\n    _addbulkDistributor(msg.sender);\r\n  }\r\n\r\n  // Define a modifier that checks to see if msg.sender has the appropriate role\r\n  modifier onlybulkDistributor() {\r\n    require(isbulkDistributor(msg.sender));\r\n    _;\r\n  }\r\n\r\n  // Define a function 'isbulkDistributor' to check this role\r\n  function isbulkDistributor(address account) public view returns (bool) {\r\n    return bulkDistributors.has(account);\r\n  }\r\n\r\n  // Define a function 'addbulkDistributor' that adds this role\r\n  function addbulkDistributor(address account) public onlybulkDistributor {\r\n    _addbulkDistributor(account);\r\n  }\r\n\r\n  // Define a function 'renounceBulkDistributor' to renounce this role\r\n  function renounceBulkDistributor() public {\r\n    _removeBulkDistributor(msg.sender);\r\n  }\r\n\r\n  // Define an internal function '_addbulkDistributor' to add this role, called by 'addbulkDistributor'\r\n  function _addbulkDistributor(address account) internal {\r\n    bulkDistributors.add(account);\r\n    emit bulkDistributorAdded(account);\r\n  }\r\n\r\n  // Define an internal function '_removeBulkDistributor' to remove this role, called by 'removeFarmer'\r\n  function _removeBulkDistributor(address account) internal {\r\n    bulkDistributors.remove(account);\r\n    emit bulkDistributorAdded(account);\r\n  }\r\n}",
  "sourcePath": "D:\\repo\\wine_supply_chain\\contracts\\wineccesscontrol\\BulkDistributorRole.sol",
  "compiler": {
    "name": "solc",
    "version": "0.4.25+commit.59dbf8f1.Emscripten.clang"
  },
  "schemaVersion": "2.0.2",
  "updatedAt": "2019-03-14T02:37:56.784Z"
}