{
  "contractName": "BulkDistrubutorRole",
  "abi": [
    {
      "inputs": [],
      "payable": false,
      "stateMutability": "nonpayable",
      "type": "constructor"
    },
    {
      "anonymous": false,
      "inputs": [
        {
          "indexed": true,
          "name": "account",
          "type": "address"
        }
      ],
      "name": "bulkDistrubutorAdded",
      "type": "event"
    },
    {
      "anonymous": false,
      "inputs": [
        {
          "indexed": true,
          "name": "account",
          "type": "address"
        }
      ],
      "name": "bulkDistrubutorRemoved",
      "type": "event"
    },
    {
      "constant": true,
      "inputs": [
        {
          "name": "account",
          "type": "address"
        }
      ],
      "name": "isBulkDistrubutor",
      "outputs": [
        {
          "name": "",
          "type": "bool"
        }
      ],
      "payable": false,
      "stateMutability": "view",
      "type": "function"
    },
    {
      "constant": false,
      "inputs": [
        {
          "name": "account",
          "type": "address"
        }
      ],
      "name": "addBulkDistrubutor",
      "outputs": [],
      "payable": false,
      "stateMutability": "nonpayable",
      "type": "function"
    },
    {
      "constant": false,
      "inputs": [],
      "name": "renounceBulkDistributor",
      "outputs": [],
      "payable": false,
      "stateMutability": "nonpayable",
      "type": "function"
    }
  ],
  "bytecode": "0x608060405234801561001057600080fd5b506100293361002e640100000000026401000000009004565b6101e8565b61004f81600061009564010000000002610350179091906401000000009004565b8073ffffffffffffffffffffffffffffffffffffffff167f40819589d97cbcd3842e1797811bf5ca63b758f9721d3a6c5f77e5681723d3c160405160405180910390a250565b600073ffffffffffffffffffffffffffffffffffffffff168173ffffffffffffffffffffffffffffffffffffffff16141515156100d157600080fd5b6100ea8282610154640100000000026401000000009004565b1515156100f657600080fd5b60018260000160008373ffffffffffffffffffffffffffffffffffffffff1673ffffffffffffffffffffffffffffffffffffffff16815260200190815260200160002060006101000a81548160ff0219169083151502179055505050565b60008073ffffffffffffffffffffffffffffffffffffffff168273ffffffffffffffffffffffffffffffffffffffff161415151561019157600080fd5b8260000160008373ffffffffffffffffffffffffffffffffffffffff1673ffffffffffffffffffffffffffffffffffffffff16815260200190815260200160002060009054906101000a900460ff16905092915050565b61042c806101f76000396000f300608060405260043610610057576000357c0100000000000000000000000000000000000000000000000000000000900463ffffffff16806362f9d4961461005c578063e73cdc41146100b7578063fb3866e8146100ce575b600080fd5b34801561006857600080fd5b5061009d600480360381019080803573ffffffffffffffffffffffffffffffffffffffff169060200190929190505050610111565b604051808215151515815260200191505060405180910390f35b3480156100c357600080fd5b506100cc61012e565b005b3480156100da57600080fd5b5061010f600480360381019080803573ffffffffffffffffffffffffffffffffffffffff169060200190929190505050610139565b005b600061012782600061015990919063ffffffff16565b9050919050565b610137336101ed565b565b61014233610111565b151561014d57600080fd5b61015681610247565b50565b60008073ffffffffffffffffffffffffffffffffffffffff168273ffffffffffffffffffffffffffffffffffffffff161415151561019657600080fd5b8260000160008373ffffffffffffffffffffffffffffffffffffffff1673ffffffffffffffffffffffffffffffffffffffff16815260200190815260200160002060009054906101000a900460ff16905092915050565b6102018160006102a190919063ffffffff16565b8073ffffffffffffffffffffffffffffffffffffffff167f40819589d97cbcd3842e1797811bf5ca63b758f9721d3a6c5f77e5681723d3c160405160405180910390a250565b61025b81600061035090919063ffffffff16565b8073ffffffffffffffffffffffffffffffffffffffff167f40819589d97cbcd3842e1797811bf5ca63b758f9721d3a6c5f77e5681723d3c160405160405180910390a250565b600073ffffffffffffffffffffffffffffffffffffffff168173ffffffffffffffffffffffffffffffffffffffff16141515156102dd57600080fd5b6102e78282610159565b15156102f257600080fd5b60008260000160008373ffffffffffffffffffffffffffffffffffffffff1673ffffffffffffffffffffffffffffffffffffffff16815260200190815260200160002060006101000a81548160ff0219169083151502179055505050565b600073ffffffffffffffffffffffffffffffffffffffff168173ffffffffffffffffffffffffffffffffffffffff161415151561038c57600080fd5b6103968282610159565b1515156103a257600080fd5b60018260000160008373ffffffffffffffffffffffffffffffffffffffff1673ffffffffffffffffffffffffffffffffffffffff16815260200190815260200160002060006101000a81548160ff02191690831515021790555050505600a165627a7a723058204ebddc85813e2fef14ef15edd88264fac619a5b11fbebf75a1e32a064e611e890029",
  "source": "pragma solidity ^0.4.24;\r\n\r\n// Import the library 'Roles'\r\nimport \"./Roles.sol\";\r\n\r\n// Define a contract 'FarmerRole' to manage this role - add, remove, check\r\ncontract BulkDistrubutorRole {\r\n  using Roles for Roles.Role;\r\n\r\n  // Define 2 events, one for Adding, and other for Removing\r\n  event bulkDistrubutorAdded(address indexed account);\r\n  event bulkDistrubutorRemoved(address indexed account);\r\n\r\n  // Define a struct 'bulkDistrubutors' by inheriting from 'Roles' library, struct Role\r\n  Roles.Role private bulkDistrubutors;\r\n\r\n  // In the constructor make the address that deploys this contract the 1st bulkDistrubutor\r\n  constructor() public {\r\n    _addbulkDistrubutor(msg.sender);\r\n  }\r\n\r\n  // Define a modifier that checks to see if msg.sender has the appropriate role\r\n  modifier onlyBulkDistrubutor() {\r\n    require(isBulkDistrubutor(msg.sender));\r\n    _;\r\n  }\r\n\r\n  // Define a function 'isBulkDistrubutor' to check this role\r\n  function isBulkDistrubutor(address account) public view returns (bool) {\r\n    return bulkDistrubutors.has(account);\r\n  }\r\n\r\n  // Define a function 'addBulkDistrubutor' that adds this role\r\n  function addBulkDistrubutor(address account) public onlyBulkDistrubutor {\r\n    _addbulkDistrubutor(account);\r\n  }\r\n\r\n  // Define a function 'renounceBulkDistributor' to renounce this role\r\n  function renounceBulkDistributor() public {\r\n    _removeBulkDistributor(msg.sender);\r\n  }\r\n\r\n  // Define an internal function '_addbulkDistrubutor' to add this role, called by 'addBulkDistrubutor'\r\n  function _addbulkDistrubutor(address account) internal {\r\n    bulkDistrubutors.add(account);\r\n    emit bulkDistrubutorAdded(account);\r\n  }\r\n\r\n  // Define an internal function '_removeBulkDistributor' to remove this role, called by 'removeFarmer'\r\n  function _removeBulkDistributor(address account) internal {\r\n    bulkDistrubutors.remove(account);\r\n    emit bulkDistrubutorAdded(account);\r\n  }\r\n}",
  "sourcePath": "D:\\repo\\wine_supply_chain\\contracts\\wineccesscontrol\\BulkDistributorRole.sol",
  "compiler": {
    "name": "solc",
    "version": "0.4.25+commit.59dbf8f1.Emscripten.clang"
  },
  "schemaVersion": "2.0.2",
  "updatedAt": "2019-03-07T01:55:04.443Z"
}