{
  "contractName": "DistributorRole",
  "abi": [
    {
      "inputs": [],
      "payable": false,
      "stateMutability": "nonpayable",
      "type": "constructor"
    },
    {
      "anonymous": false,
      "inputs": [
        {
          "indexed": true,
          "name": "account",
          "type": "address"
        }
      ],
      "name": "DistributorAdded",
      "type": "event"
    },
    {
      "anonymous": false,
      "inputs": [
        {
          "indexed": true,
          "name": "account",
          "type": "address"
        }
      ],
      "name": "DistributorRemoved",
      "type": "event"
    },
    {
      "constant": true,
      "inputs": [
        {
          "name": "account",
          "type": "address"
        }
      ],
      "name": "isDistributor",
      "outputs": [
        {
          "name": "",
          "type": "bool"
        }
      ],
      "payable": false,
      "stateMutability": "view",
      "type": "function"
    },
    {
      "constant": false,
      "inputs": [
        {
          "name": "account",
          "type": "address"
        }
      ],
      "name": "addDistributor",
      "outputs": [],
      "payable": false,
      "stateMutability": "nonpayable",
      "type": "function"
    },
    {
      "constant": false,
      "inputs": [
        {
          "name": "account",
          "type": "address"
        }
      ],
      "name": "renounceDistributor",
      "outputs": [],
      "payable": false,
      "stateMutability": "nonpayable",
      "type": "function"
    }
  ],
  "bytecode": "0x608060405234801561001057600080fd5b506100293361002e640100000000026401000000009004565b6101e8565b61004f816000610095640100000000026102ce179091906401000000009004565b8073ffffffffffffffffffffffffffffffffffffffff167fddbf200aa634dc3fb81cfd68583dd1040d1c751d335e1d86b631bde3e977fea860405160405180910390a250565b600073ffffffffffffffffffffffffffffffffffffffff168173ffffffffffffffffffffffffffffffffffffffff16141515156100d157600080fd5b6100ea8282610154640100000000026401000000009004565b1515156100f657600080fd5b60018260000160008373ffffffffffffffffffffffffffffffffffffffff1673ffffffffffffffffffffffffffffffffffffffff16815260200190815260200160002060006101000a81548160ff0219169083151502179055505050565b60008073ffffffffffffffffffffffffffffffffffffffff168273ffffffffffffffffffffffffffffffffffffffff161415151561019157600080fd5b8260000160008373ffffffffffffffffffffffffffffffffffffffff1673ffffffffffffffffffffffffffffffffffffffff16815260200190815260200160002060009054906101000a900460ff16905092915050565b610459806101f76000396000f300608060405260043610610057576000357c0100000000000000000000000000000000000000000000000000000000900463ffffffff1680637250e2241461005c5780638f0c86fa1461009f578063bbb67db9146100fa575b600080fd5b34801561006857600080fd5b5061009d600480360381019080803573ffffffffffffffffffffffffffffffffffffffff16906020019092919050505061013d565b005b3480156100ab57600080fd5b506100e0600480360381019080803573ffffffffffffffffffffffffffffffffffffffff16906020019092919050505061015d565b604051808215151515815260200191505060405180910390f35b34801561010657600080fd5b5061013b600480360381019080803573ffffffffffffffffffffffffffffffffffffffff16906020019092919050505061017a565b005b6101463361015d565b151561015157600080fd5b61015a81610186565b50565b60006101738260006101e090919063ffffffff16565b9050919050565b61018381610274565b50565b61019a8160006102ce90919063ffffffff16565b8073ffffffffffffffffffffffffffffffffffffffff167fddbf200aa634dc3fb81cfd68583dd1040d1c751d335e1d86b631bde3e977fea860405160405180910390a250565b60008073ffffffffffffffffffffffffffffffffffffffff168273ffffffffffffffffffffffffffffffffffffffff161415151561021d57600080fd5b8260000160008373ffffffffffffffffffffffffffffffffffffffff1673ffffffffffffffffffffffffffffffffffffffff16815260200190815260200160002060009054906101000a900460ff16905092915050565b61028881600061037e90919063ffffffff16565b8073ffffffffffffffffffffffffffffffffffffffff167f126174f6cf49c81cdb4a9214c6b8f037bef55b4ec31e4fc776cea2a1c8a88d5960405160405180910390a250565b600073ffffffffffffffffffffffffffffffffffffffff168173ffffffffffffffffffffffffffffffffffffffff161415151561030a57600080fd5b61031482826101e0565b15151561032057600080fd5b60018260000160008373ffffffffffffffffffffffffffffffffffffffff1673ffffffffffffffffffffffffffffffffffffffff16815260200190815260200160002060006101000a81548160ff0219169083151502179055505050565b600073ffffffffffffffffffffffffffffffffffffffff168173ffffffffffffffffffffffffffffffffffffffff16141515156103ba57600080fd5b6103c482826101e0565b15156103cf57600080fd5b60008260000160008373ffffffffffffffffffffffffffffffffffffffff1673ffffffffffffffffffffffffffffffffffffffff16815260200190815260200160002060006101000a81548160ff02191690831515021790555050505600a165627a7a72305820d9b3f02bce3711be0f6f5da896d3a407f62d92f841424cb674a57380882f03410029",
  "source": "pragma solidity ^0.4.24;\r\n\r\n// Import the library 'Roles'\r\nimport \"./Roles.sol\";\r\n\r\n// Define a contract 'DistributorRole' to manage this role - add, remove, check\r\ncontract DistributorRole {\r\n using Roles for Roles.Role;\r\n  // Define 2 events, one for Adding, and other for Removing\r\n  event DistributorAdded(address indexed account);\r\n  event DistributorRemoved(address indexed account);\r\n  // Define a struct 'distributors' by inheriting from 'Roles' library, struct Role\r\n  Roles.Role private distributors;\r\n  // In the constructor make the address that deploys this contract the 1st distributor\r\n  constructor() public {\r\n   _addDistributor(msg.sender);\r\n  }\r\n\r\n  // Define a modifier that checks to see if msg.sender has the appropriate role\r\n  modifier onlyDistributor() {\r\n    require(isDistributor(msg.sender));\r\n    _;\r\n  }\r\n\r\n  // Define a function 'isDistributor' to check this role\r\n  function isDistributor(address account) public view returns (bool) {\r\n   return distributors.has(account);\r\n  }\r\n\r\n  // Define a function 'addDistributor' that adds this role\r\n  function addDistributor(address account) public onlyDistributor {\r\n  _addDistributor(account);\r\n  }\r\n\r\n  // Define a function 'renounceDistributor' to renounce this role\r\n  function renounceDistributor(address account) public {\r\n   _removeDistributor(account);\r\n  }\r\n\r\n  // Define an internal function '_addDistributor' to add this role, called by 'addDistributor'\r\n  function _addDistributor(address account) internal {\r\n         distributors.add(account);\r\n         emit DistributorAdded(account);\r\n  }\r\n\r\n  // Define an internal function '_removeDistributor' to remove this role, called by 'removeDistributor'\r\n  function _removeDistributor(address account) internal {\r\n        distributors.remove(account);\r\n        emit DistributorRemoved(account);\r\n  }\r\n}",
  "sourcePath": "D:\\repo\\wine_supply_chain\\contracts\\wineccesscontrol\\DistributorRole.sol",
  "compiler": {
    "name": "solc",
    "version": "0.4.25+commit.59dbf8f1.Emscripten.clang"
  },
  "schemaVersion": "2.0.2",
  "updatedAt": "2019-03-13T04:54:14.334Z"
}