{
  "contractName": "SupplyChain",
  "abi": [
    {
      "constant": false,
      "inputs": [
        {
          "name": "account",
          "type": "address"
        }
      ],
      "name": "addConsumer",
      "outputs": [],
      "payable": false,
      "stateMutability": "nonpayable",
      "type": "function"
    },
    {
      "constant": true,
      "inputs": [
        {
          "name": "account",
          "type": "address"
        }
      ],
      "name": "isRetailer",
      "outputs": [
        {
          "name": "",
          "type": "bool"
        }
      ],
      "payable": false,
      "stateMutability": "view",
      "type": "function"
    },
    {
      "constant": false,
      "inputs": [],
      "name": "renounceConsumer",
      "outputs": [],
      "payable": false,
      "stateMutability": "nonpayable",
      "type": "function"
    },
    {
      "constant": true,
      "inputs": [
        {
          "name": "account",
          "type": "address"
        }
      ],
      "name": "isConsumer",
      "outputs": [
        {
          "name": "",
          "type": "bool"
        }
      ],
      "payable": false,
      "stateMutability": "view",
      "type": "function"
    },
    {
      "constant": false,
      "inputs": [
        {
          "name": "account",
          "type": "address"
        }
      ],
      "name": "addRetailer",
      "outputs": [],
      "payable": false,
      "stateMutability": "nonpayable",
      "type": "function"
    },
    {
      "constant": false,
      "inputs": [],
      "name": "renounceRetailer",
      "outputs": [],
      "payable": false,
      "stateMutability": "nonpayable",
      "type": "function"
    },
    {
      "inputs": [],
      "payable": true,
      "stateMutability": "payable",
      "type": "constructor"
    },
    {
      "anonymous": false,
      "inputs": [
        {
          "indexed": false,
          "name": "upc",
          "type": "uint256"
        }
      ],
      "name": "Harvested",
      "type": "event"
    },
    {
      "anonymous": false,
      "inputs": [
        {
          "indexed": false,
          "name": "upc",
          "type": "uint256"
        }
      ],
      "name": "Processed",
      "type": "event"
    },
    {
      "anonymous": false,
      "inputs": [
        {
          "indexed": false,
          "name": "upc",
          "type": "uint256"
        }
      ],
      "name": "Packed",
      "type": "event"
    },
    {
      "anonymous": false,
      "inputs": [
        {
          "indexed": false,
          "name": "upc",
          "type": "uint256"
        }
      ],
      "name": "ForSale",
      "type": "event"
    },
    {
      "anonymous": false,
      "inputs": [
        {
          "indexed": false,
          "name": "upc",
          "type": "uint256"
        }
      ],
      "name": "Sold",
      "type": "event"
    },
    {
      "anonymous": false,
      "inputs": [
        {
          "indexed": false,
          "name": "upc",
          "type": "uint256"
        }
      ],
      "name": "Shipped",
      "type": "event"
    },
    {
      "anonymous": false,
      "inputs": [
        {
          "indexed": false,
          "name": "upc",
          "type": "uint256"
        }
      ],
      "name": "Received",
      "type": "event"
    },
    {
      "anonymous": false,
      "inputs": [
        {
          "indexed": false,
          "name": "upc",
          "type": "uint256"
        }
      ],
      "name": "Purchased",
      "type": "event"
    },
    {
      "anonymous": false,
      "inputs": [
        {
          "indexed": true,
          "name": "account",
          "type": "address"
        }
      ],
      "name": "RetailerAdded",
      "type": "event"
    },
    {
      "anonymous": false,
      "inputs": [
        {
          "indexed": true,
          "name": "account",
          "type": "address"
        }
      ],
      "name": "RetailerRemoved",
      "type": "event"
    },
    {
      "anonymous": false,
      "inputs": [
        {
          "indexed": true,
          "name": "account",
          "type": "address"
        }
      ],
      "name": "ConsumerAdded",
      "type": "event"
    },
    {
      "anonymous": false,
      "inputs": [
        {
          "indexed": true,
          "name": "account",
          "type": "address"
        }
      ],
      "name": "ConsumerRemoved",
      "type": "event"
    },
    {
      "constant": false,
      "inputs": [],
      "name": "kill",
      "outputs": [],
      "payable": false,
      "stateMutability": "nonpayable",
      "type": "function"
    },
    {
      "constant": false,
      "inputs": [
        {
          "name": "_upc",
          "type": "uint256"
        },
        {
          "name": "_originGrapeGrowerID",
          "type": "address"
        },
        {
          "name": "_originGrapeGrowerName",
          "type": "string"
        },
        {
          "name": "_originGrapeGrowerInformation",
          "type": "string"
        },
        {
          "name": "_originGrapeGrowerLatitude",
          "type": "string"
        },
        {
          "name": "_originGrapeGrowerLongitude",
          "type": "string"
        },
        {
          "name": "_productNotes",
          "type": "string"
        }
      ],
      "name": "harvestItem",
      "outputs": [],
      "payable": false,
      "stateMutability": "nonpayable",
      "type": "function"
    },
    {
      "constant": false,
      "inputs": [
        {
          "name": "_upc",
          "type": "uint256"
        }
      ],
      "name": "processItem",
      "outputs": [],
      "payable": false,
      "stateMutability": "nonpayable",
      "type": "function"
    },
    {
      "constant": false,
      "inputs": [
        {
          "name": "_upc",
          "type": "uint256"
        }
      ],
      "name": "packItem",
      "outputs": [],
      "payable": false,
      "stateMutability": "nonpayable",
      "type": "function"
    },
    {
      "constant": false,
      "inputs": [
        {
          "name": "_upc",
          "type": "uint256"
        },
        {
          "name": "_price",
          "type": "uint256"
        }
      ],
      "name": "sellItem",
      "outputs": [],
      "payable": false,
      "stateMutability": "nonpayable",
      "type": "function"
    },
    {
      "constant": false,
      "inputs": [
        {
          "name": "_upc",
          "type": "uint256"
        }
      ],
      "name": "buyItem",
      "outputs": [],
      "payable": true,
      "stateMutability": "payable",
      "type": "function"
    },
    {
      "constant": false,
      "inputs": [
        {
          "name": "_upc",
          "type": "uint256"
        }
      ],
      "name": "shipItem",
      "outputs": [],
      "payable": false,
      "stateMutability": "nonpayable",
      "type": "function"
    },
    {
      "constant": false,
      "inputs": [
        {
          "name": "_upc",
          "type": "uint256"
        }
      ],
      "name": "receiveItem",
      "outputs": [],
      "payable": false,
      "stateMutability": "nonpayable",
      "type": "function"
    },
    {
      "constant": false,
      "inputs": [
        {
          "name": "_upc",
          "type": "uint256"
        }
      ],
      "name": "purchaseItem",
      "outputs": [],
      "payable": false,
      "stateMutability": "nonpayable",
      "type": "function"
    },
    {
      "constant": true,
      "inputs": [
        {
          "name": "_upc",
          "type": "uint256"
        }
      ],
      "name": "fetchItemBufferOne",
      "outputs": [
        {
          "name": "itemSKU",
          "type": "uint256"
        },
        {
          "name": "itemUPC",
          "type": "uint256"
        },
        {
          "name": "ownerID",
          "type": "address"
        },
        {
          "name": "originGrapeGrowerID",
          "type": "address"
        },
        {
          "name": "originGrapeGrowerName",
          "type": "string"
        },
        {
          "name": "originGrapeGrowerInformation",
          "type": "string"
        },
        {
          "name": "originGrapeGrowerLatitude",
          "type": "string"
        },
        {
          "name": "originGrapeGrowerLongitude",
          "type": "string"
        }
      ],
      "payable": false,
      "stateMutability": "view",
      "type": "function"
    },
    {
      "constant": true,
      "inputs": [
        {
          "name": "_upc",
          "type": "uint256"
        }
      ],
      "name": "fetchItemBufferTwo",
      "outputs": [
        {
          "name": "itemSKU",
          "type": "uint256"
        },
        {
          "name": "itemUPC",
          "type": "uint256"
        },
        {
          "name": "productID",
          "type": "uint256"
        },
        {
          "name": "productNotes",
          "type": "string"
        },
        {
          "name": "productPrice",
          "type": "uint256"
        },
        {
          "name": "itemState",
          "type": "uint256"
        },
        {
          "name": "distributorID",
          "type": "address"
        },
        {
          "name": "retailerID",
          "type": "address"
        },
        {
          "name": "consumerID",
          "type": "address"
        }
      ],
      "payable": false,
      "stateMutability": "view",
      "type": "function"
    }
  ],
  "bytecode": "0x60806040526200001e336200008f640100000000026401000000009004565b6200003833620000b6640100000000026401000000009004565b33600260006101000a81548173ffffffffffffffffffffffffffffffffffffffff021916908373ffffffffffffffffffffffffffffffffffffffff1602179055506001600481905550600160038190555062000235565b620000b3816000620000dd640100000000026200290e179091906401000000009004565b50565b620000da816001620000dd640100000000026200290e179091906401000000009004565b50565b600073ffffffffffffffffffffffffffffffffffffffff168173ffffffffffffffffffffffffffffffffffffffff16141515156200011a57600080fd5b620001358282620001a0640100000000026401000000009004565b1515156200014257600080fd5b60018260000160008373ffffffffffffffffffffffffffffffffffffffff1673ffffffffffffffffffffffffffffffffffffffff16815260200190815260200160002060006101000a81548160ff0219169083151502179055505050565b60008073ffffffffffffffffffffffffffffffffffffffff168273ffffffffffffffffffffffffffffffffffffffff1614151515620001de57600080fd5b8260000160008373ffffffffffffffffffffffffffffffffffffffff1673ffffffffffffffffffffffffffffffffffffffff16815260200190815260200160002060009054906101000a900460ff16905092915050565b612c2e80620002456000396000f3006080604052600436106100f1576000357c0100000000000000000000000000000000000000000000000000000000900463ffffffff168063112940f9146100f65780632d9235611461013957806341c0e1b51461017057806349dae766146101875780635da09b88146101b457806361e6982d1461020f57806366225ff91461022657806377c4591314610388578063834ff739146105e65780638ec4f50514610641578063a26be99914610684578063bdd8a6a8146106b1578063d38ea5bf1461085c578063db0e6a2f14610889578063e7fb74c7146108a0578063f30fc480146108c0578063f61c899a146108ed575b600080fd5b34801561010257600080fd5b50610137600480360381019080803573ffffffffffffffffffffffffffffffffffffffff16906020019092919050505061091a565b005b34801561014557600080fd5b5061016e600480360381019080803590602001909291908035906020019092919050505061093a565b005b34801561017c57600080fd5b50610185610ba0565b005b34801561019357600080fd5b506101b260048036038101908080359060200190929190505050610c33565b005b3480156101c057600080fd5b506101f5600480360381019080803573ffffffffffffffffffffffffffffffffffffffff169060200190929190505050610e77565b604051808215151515815260200191505060405180910390f35b34801561021b57600080fd5b50610224610e94565b005b34801561023257600080fd5b5061025160048036038101908080359060200190929190505050610e9f565b604051808a8152602001898152602001888152602001806020018781526020018681526020018573ffffffffffffffffffffffffffffffffffffffff1673ffffffffffffffffffffffffffffffffffffffff1681526020018473ffffffffffffffffffffffffffffffffffffffff1673ffffffffffffffffffffffffffffffffffffffff1681526020018373ffffffffffffffffffffffffffffffffffffffff1673ffffffffffffffffffffffffffffffffffffffff168152602001828103825288818151815260200191508051906020019080838360005b8381101561034557808201518184015260208101905061032a565b50505050905090810190601f1680156103725780820380516001836020036101000a031916815260200191505b509a505050505050505050505060405180910390f35b34801561039457600080fd5b506103b36004803603810190808035906020019092919050505061146c565b604051808981526020018881526020018773ffffffffffffffffffffffffffffffffffffffff1673ffffffffffffffffffffffffffffffffffffffff1681526020018673ffffffffffffffffffffffffffffffffffffffff1673ffffffffffffffffffffffffffffffffffffffff16815260200180602001806020018060200180602001858103855289818151815260200191508051906020019080838360005b8381101561046f578082015181840152602081019050610454565b50505050905090810190601f16801561049c5780820380516001836020036101000a031916815260200191505b50858103845288818151815260200191508051906020019080838360005b838110156104d55780820151818401526020810190506104ba565b50505050905090810190601f1680156105025780820380516001836020036101000a031916815260200191505b50858103835287818151815260200191508051906020019080838360005b8381101561053b578082015181840152602081019050610520565b50505050905090810190601f1680156105685780820380516001836020036101000a031916815260200191505b50858103825286818151815260200191508051906020019080838360005b838110156105a1578082015181840152602081019050610586565b50505050905090810190601f1680156105ce5780820380516001836020036101000a031916815260200191505b509c5050505050505050505050505060405180910390f35b3480156105f257600080fd5b50610627600480360381019080803573ffffffffffffffffffffffffffffffffffffffff169060200190929190505050611a27565b604051808215151515815260200191505060405180910390f35b34801561064d57600080fd5b50610682600480360381019080803573ffffffffffffffffffffffffffffffffffffffff169060200190929190505050611a44565b005b34801561069057600080fd5b506106af60048036038101908080359060200190929190505050611a64565b005b3480156106bd57600080fd5b5061085a60048036038101908080359060200190929190803573ffffffffffffffffffffffffffffffffffffffff169060200190929190803590602001908201803590602001908080601f0160208091040260200160405190810160405280939291908181526020018383808284378201915050505050509192919290803590602001908201803590602001908080601f0160208091040260200160405190810160405280939291908181526020018383808284378201915050505050509192919290803590602001908201803590602001908080601f0160208091040260200160405190810160405280939291908181526020018383808284378201915050505050509192919290803590602001908201803590602001908080601f0160208091040260200160405190810160405280939291908181526020018383808284378201915050505050509192919290803590602001908201803590602001908080601f0160208091040260200160405190810160405280939291908181526020018383808284378201915050505050509192919290505050611c52565b005b34801561086857600080fd5b5061088760048036038101908080359060200190929190505050611e02565b005b34801561089557600080fd5b5061089e611fef565b005b6108be60048036038101908080359060200190929190505050611ffa565b005b3480156108cc57600080fd5b506108eb60048036038101908080359060200190929190505050612308565b005b3480156108f957600080fd5b506109186004803603810190808035906020019092919050505061254c565b005b61092333611a27565b151561092e57600080fd5b61093781612798565b50565b816002600781111561094857fe5b60056000838152602001908152602001600020600b0160009054906101000a900460ff16600781111561097757fe5b14151561098357600080fd5b6005600084815260200190815260200160002060020160009054906101000a900473ffffffffffffffffffffffffffffffffffffffff168073ffffffffffffffffffffffffffffffffffffffff163373ffffffffffffffffffffffffffffffffffffffff161415156109f457600080fd5b6005600085815260200190815260200160002060030160009054906101000a900473ffffffffffffffffffffffffffffffffffffffff166005600086815260200190815260200160002060020160006101000a81548173ffffffffffffffffffffffffffffffffffffffff021916908373ffffffffffffffffffffffffffffffffffffffff1602179055506005600085815260200190815260200160002060030160009054906101000a900473ffffffffffffffffffffffffffffffffffffffff166005600086815260200190815260200160002060030160006101000a81548173ffffffffffffffffffffffffffffffffffffffff021916908373ffffffffffffffffffffffffffffffffffffffff1602179055508260056000868152602001908152602001600020600a018190555060036007811115610b3257fe5b60056000868152602001908152602001600020600b0160009054906101000a900460ff166007811115610b6157fe5b50507fa96ae0fc3224ebd79eebfe54bd130cc9cb94416cddd1f2386115e00b72532468846040518082815260200191505060405180910390a150505050565b600260009054906101000a900473ffffffffffffffffffffffffffffffffffffffff1673ffffffffffffffffffffffffffffffffffffffff163373ffffffffffffffffffffffffffffffffffffffff161415610c3157600260009054906101000a900473ffffffffffffffffffffffffffffffffffffffff1673ffffffffffffffffffffffffffffffffffffffff16ff5b565b8060006007811115610c4157fe5b60056000838152602001908152602001600020600b0160009054906101000a900460ff166007811115610c7057fe5b141515610c7c57600080fd5b6005600083815260200190815260200160002060020160009054906101000a900473ffffffffffffffffffffffffffffffffffffffff168073ffffffffffffffffffffffffffffffffffffffff163373ffffffffffffffffffffffffffffffffffffffff16141515610ced57600080fd5b6005600084815260200190815260200160002060030160009054906101000a900473ffffffffffffffffffffffffffffffffffffffff166005600085815260200190815260200160002060020160006101000a81548173ffffffffffffffffffffffffffffffffffffffff021916908373ffffffffffffffffffffffffffffffffffffffff1602179055506005600084815260200190815260200160002060030160009054906101000a900473ffffffffffffffffffffffffffffffffffffffff166005600085815260200190815260200160002060030160006101000a81548173ffffffffffffffffffffffffffffffffffffffff021916908373ffffffffffffffffffffffffffffffffffffffff160217905550600160056000858152602001908152602001600020600b0160006101000a81548160ff02191690836007811115610e3657fe5b02179055507f5afe3b1bf87069693c075da5c22a98d63d1aef98a30dbbe538d0781a98b77ee5836040518082815260200191505060405180910390a1505050565b6000610e8d8260016127af90919063ffffffff16565b9050919050565b610e9d33612843565b565b600080600060606000806000806000610eb6612a6d565b600560008c81526020019081526020016000206101e0604051908101604052908160008201548152602001600182015481526020016002820160009054906101000a900473ffffffffffffffffffffffffffffffffffffffff1673ffffffffffffffffffffffffffffffffffffffff1673ffffffffffffffffffffffffffffffffffffffff1681526020016003820160009054906101000a900473ffffffffffffffffffffffffffffffffffffffff1673ffffffffffffffffffffffffffffffffffffffff1673ffffffffffffffffffffffffffffffffffffffff168152602001600482018054600181600116156101000203166002900480601f01602080910402602001604051908101604052809291908181526020018280546001816001161561010002031660029004801561102f5780601f106110045761010080835404028352916020019161102f565b820191906000526020600020905b81548152906001019060200180831161101257829003601f168201915b50505050508152602001600582018054600181600116156101000203166002900480601f0160208091040260200160405190810160405280929190818152602001828054600181600116156101000203166002900480156110d15780601f106110a6576101008083540402835291602001916110d1565b820191906000526020600020905b8154815290600101906020018083116110b457829003601f168201915b50505050508152602001600682018054600181600116156101000203166002900480601f0160208091040260200160405190810160405280929190818152602001828054600181600116156101000203166002900480156111735780601f1061114857610100808354040283529160200191611173565b820191906000526020600020905b81548152906001019060200180831161115657829003601f168201915b50505050508152602001600782018054600181600116156101000203166002900480601f0160208091040260200160405190810160405280929190818152602001828054600181600116156101000203166002900480156112155780601f106111ea57610100808354040283529160200191611215565b820191906000526020600020905b8154815290600101906020018083116111f857829003601f168201915b5050505050815260200160088201548152602001600982018054600181600116156101000203166002900480601f0160208091040260200160405190810160405280929190818152602001828054600181600116156101000203166002900480156112c15780601f10611296576101008083540402835291602001916112c1565b820191906000526020600020905b8154815290600101906020018083116112a457829003601f168201915b50505050508152602001600a8201548152602001600b820160009054906101000a900460ff1660078111156112f257fe5b60078111156112fd57fe5b8152602001600b820160019054906101000a900473ffffffffffffffffffffffffffffffffffffffff1673ffffffffffffffffffffffffffffffffffffffff1673ffffffffffffffffffffffffffffffffffffffff168152602001600c820160009054906101000a900473ffffffffffffffffffffffffffffffffffffffff1673ffffffffffffffffffffffffffffffffffffffff1673ffffffffffffffffffffffffffffffffffffffff168152602001600d820160009054906101000a900473ffffffffffffffffffffffffffffffffffffffff1673ffffffffffffffffffffffffffffffffffffffff1673ffffffffffffffffffffffffffffffffffffffff1681525050905080600001519950898b9950898261010001519950898361012001519950898461014001519950896000995089866101800151995089876101a00151995089886101c00151995089995099509950995099509950995099509950509193959799909294969850565b600080600080606080606080611480612a6d565b600560008b81526020019081526020016000206101e0604051908101604052908160008201548152602001600182015481526020016002820160009054906101000a900473ffffffffffffffffffffffffffffffffffffffff1673ffffffffffffffffffffffffffffffffffffffff1673ffffffffffffffffffffffffffffffffffffffff1681526020016003820160009054906101000a900473ffffffffffffffffffffffffffffffffffffffff1673ffffffffffffffffffffffffffffffffffffffff1673ffffffffffffffffffffffffffffffffffffffff168152602001600482018054600181600116156101000203166002900480601f0160208091040260200160405190810160405280929190818152602001828054600181600116156101000203166002900480156115f95780601f106115ce576101008083540402835291602001916115f9565b820191906000526020600020905b8154815290600101906020018083116115dc57829003601f168201915b50505050508152602001600582018054600181600116156101000203166002900480601f01602080910402602001604051908101604052809291908181526020018280546001816001161561010002031660029004801561169b5780601f106116705761010080835404028352916020019161169b565b820191906000526020600020905b81548152906001019060200180831161167e57829003601f168201915b50505050508152602001600682018054600181600116156101000203166002900480601f01602080910402602001604051908101604052809291908181526020018280546001816001161561010002031660029004801561173d5780601f106117125761010080835404028352916020019161173d565b820191906000526020600020905b81548152906001019060200180831161172057829003601f168201915b50505050508152602001600782018054600181600116156101000203166002900480601f0160208091040260200160405190810160405280929190818152602001828054600181600116156101000203166002900480156117df5780601f106117b4576101008083540402835291602001916117df565b820191906000526020600020905b8154815290600101906020018083116117c257829003601f168201915b5050505050815260200160088201548152602001600982018054600181600116156101000203166002900480601f01602080910402602001604051908101604052809291908181526020018280546001816001161561010002031660029004801561188b5780601f106118605761010080835404028352916020019161188b565b820191906000526020600020905b81548152906001019060200180831161186e57829003601f168201915b50505050508152602001600a8201548152602001600b820160009054906101000a900460ff1660078111156118bc57fe5b60078111156118c757fe5b8152602001600b820160019054906101000a900473ffffffffffffffffffffffffffffffffffffffff1673ffffffffffffffffffffffffffffffffffffffff1673ffffffffffffffffffffffffffffffffffffffff168152602001600c820160009054906101000a900473ffffffffffffffffffffffffffffffffffffffff1673ffffffffffffffffffffffffffffffffffffffff1673ffffffffffffffffffffffffffffffffffffffff168152602001600d820160009054906101000a900473ffffffffffffffffffffffffffffffffffffffff1673ffffffffffffffffffffffffffffffffffffffff1673ffffffffffffffffffffffffffffffffffffffff1681525050905080600001519850888a9850888260400151985088836060015198508884608001519850888560a001519850888660c001519850888760e001519850889850985098509850985098509850985050919395975091939597565b6000611a3d8260006127af90919063ffffffff16565b9050919050565b611a4d33610e77565b1515611a5857600080fd5b611a618161289d565b50565b8060056007811115611a7257fe5b60056000838152602001908152602001600020600b0160009054906101000a900460ff166007811115611aa157fe5b141515611aad57600080fd5b611ab633610e77565b1515611ac157600080fd5b60056000838152602001908152602001600020600c0160009054906101000a900473ffffffffffffffffffffffffffffffffffffffff166005600084815260200190815260200160002060020160006101000a81548173ffffffffffffffffffffffffffffffffffffffff021916908373ffffffffffffffffffffffffffffffffffffffff160217905550600560006003548152602001908152602001600020600c0160009054906101000a900473ffffffffffffffffffffffffffffffffffffffff1660056000848152602001908152602001600020600c0160006101000a81548173ffffffffffffffffffffffffffffffffffffffff021916908373ffffffffffffffffffffffffffffffffffffffff16021790555060066007811115611be657fe5b60056000848152602001908152602001600020600b0160009054906101000a900460ff166007811115611c1557fe5b50507fa8142743f8f70a4c26f3691cf4ed59718381fb2f18070ec52be1f1022d855557826040518082815260200191505060405180910390a15050565b856005600089815260200190815260200160002060020160006101000a81548173ffffffffffffffffffffffffffffffffffffffff021916908373ffffffffffffffffffffffffffffffffffffffff16021790555084600560008981526020019081526020016000206004019080519060200190611cd1929190612b5d565b5083600560008981526020019081526020016000206005019080519060200190611cfc929190612b5d565b5082600560008981526020019081526020016000206006019080519060200190611d27929190612b5d565b5081600560008981526020019081526020016000206007019080519060200190611d52929190612b5d565b5080600560008981526020019081526020016000206009019080519060200190611d7d929190612b5d565b50600060056000898152602001908152602001600020600b0160006101000a81548160ff02191690836007811115611db157fe5b02179055506001600454016004819055507f8e55ccfc9778ff8eba1646d765cf1982537ce0f9257054a17b48aad745250183876040518082815260200191505060405180910390a150505050505050565b8060066007811115611e1057fe5b60056000838152602001908152602001600020600b0160009054906101000a900460ff166007811115611e3f57fe5b141515611e4b57600080fd5b611e5433611a27565b1515611e5f57600080fd5b60056000838152602001908152602001600020600d0160009054906101000a900473ffffffffffffffffffffffffffffffffffffffff166005600084815260200190815260200160002060020160006101000a81548173ffffffffffffffffffffffffffffffffffffffff021916908373ffffffffffffffffffffffffffffffffffffffff160217905550600560006003548152602001908152602001600020600d0160009054906101000a900473ffffffffffffffffffffffffffffffffffffffff1660056000848152602001908152602001600020600d0160006101000a81548173ffffffffffffffffffffffffffffffffffffffff021916908373ffffffffffffffffffffffffffffffffffffffff160217905550600780811115611f8357fe5b60056000848152602001908152602001600020600b0160009054906101000a900460ff166007811115611fb257fe5b50507f653d56639fee6b566a5c804764e9689de38645f0b733df89a36a1b7b42173dd8826040518082815260200191505060405180910390a15050565b611ff8336128b4565b565b6000816003600781111561200a57fe5b60056000838152602001908152602001600020600b0160009054906101000a900460ff16600781111561203957fe5b14151561204557600080fd5b8280341015151561205557600080fd5b8360008060056000888152602001908152602001600020600b0160019054906101000a900473ffffffffffffffffffffffffffffffffffffffff166005600089815260200190815260200160002060020160006101000a81548173ffffffffffffffffffffffffffffffffffffffff021916908373ffffffffffffffffffffffffffffffffffffffff16021790555060056000888152602001908152602001600020600b0160019054906101000a900473ffffffffffffffffffffffffffffffffffffffff1660056000898152602001908152602001600020600b0160016101000a81548173ffffffffffffffffffffffffffffffffffffffff021916908373ffffffffffffffffffffffffffffffffffffffff1602179055506004600781111561217c57fe5b60056000898152602001908152602001600020600b0160009054906101000a900460ff1660078111156121ab57fe5b50506005600088815260200190815260200160002060020160009054906101000a900473ffffffffffffffffffffffffffffffffffffffff1695508573ffffffffffffffffffffffffffffffffffffffff166108fc349081150290604051600060405180830381858888f1935050505015801561222c573d6000803e3d6000fd5b507f92f64ca637d023f354075a4be751b169c1a8a9ccb6d33cdd0cb3520543995727876040518082815260200191505060405180910390a160056000848152602001908152602001600020600a01549150813403905060056000848152602001908152602001600020600d0160009054906101000a900473ffffffffffffffffffffffffffffffffffffffff1673ffffffffffffffffffffffffffffffffffffffff166108fc829081150290604051600060405180830381858888f193505050501580156122fe573d6000803e3d6000fd5b5050505050505050565b806001600781111561231657fe5b60056000838152602001908152602001600020600b0160009054906101000a900460ff16600781111561234557fe5b14151561235157600080fd5b6005600083815260200190815260200160002060020160009054906101000a900473ffffffffffffffffffffffffffffffffffffffff168073ffffffffffffffffffffffffffffffffffffffff163373ffffffffffffffffffffffffffffffffffffffff161415156123c257600080fd5b6005600084815260200190815260200160002060030160009054906101000a900473ffffffffffffffffffffffffffffffffffffffff166005600085815260200190815260200160002060020160006101000a81548173ffffffffffffffffffffffffffffffffffffffff021916908373ffffffffffffffffffffffffffffffffffffffff1602179055506005600084815260200190815260200160002060030160009054906101000a900473ffffffffffffffffffffffffffffffffffffffff166005600085815260200190815260200160002060030160006101000a81548173ffffffffffffffffffffffffffffffffffffffff021916908373ffffffffffffffffffffffffffffffffffffffff160217905550600260056000858152602001908152602001600020600b0160006101000a81548160ff0219169083600781111561250b57fe5b02179055507f9b3b66e2380b690bae22c73ef1428fb0c91e72fe14a4b6defa13035214187aff836040518082815260200191505060405180910390a1505050565b806004600781111561255a57fe5b60056000838152602001908152602001600020600b0160009054906101000a900460ff16600781111561258957fe5b14151561259557600080fd5b6005600083815260200190815260200160002060020160009054906101000a900473ffffffffffffffffffffffffffffffffffffffff168073ffffffffffffffffffffffffffffffffffffffff163373ffffffffffffffffffffffffffffffffffffffff1614151561260657600080fd5b60056000848152602001908152602001600020600b0160019054906101000a900473ffffffffffffffffffffffffffffffffffffffff166005600085815260200190815260200160002060020160006101000a81548173ffffffffffffffffffffffffffffffffffffffff021916908373ffffffffffffffffffffffffffffffffffffffff160217905550600560006003548152602001908152602001600020600b0160019054906101000a900473ffffffffffffffffffffffffffffffffffffffff1660056000858152602001908152602001600020600b0160016101000a81548173ffffffffffffffffffffffffffffffffffffffff021916908373ffffffffffffffffffffffffffffffffffffffff1602179055506005600781111561272b57fe5b60056000858152602001908152602001600020600b0160009054906101000a900460ff16600781111561275a57fe5b50507ff00b9a5725b80c54016f42114f6ed7792d22eecb116011c4afac29c57bef6c95836040518082815260200191505060405180910390a1505050565b6127ac81600061290e90919063ffffffff16565b50565b60008073ffffffffffffffffffffffffffffffffffffffff168273ffffffffffffffffffffffffffffffffffffffff16141515156127ec57600080fd5b8260000160008373ffffffffffffffffffffffffffffffffffffffff1673ffffffffffffffffffffffffffffffffffffffff16815260200190815260200160002060009054906101000a900460ff16905092915050565b6128578160006129be90919063ffffffff16565b8073ffffffffffffffffffffffffffffffffffffffff167fe3f5ed5f263f1f01764a96edfc7d025f511ec5f7d180e8816908b78bcf74f09860405160405180910390a250565b6128b181600161290e90919063ffffffff16565b50565b6128c88160016129be90919063ffffffff16565b8073ffffffffffffffffffffffffffffffffffffffff167fdb7176e79cffef81cb01767dd0447a0b24bb72ca9778d4b245581086b2a7e6db60405160405180910390a250565b600073ffffffffffffffffffffffffffffffffffffffff168173ffffffffffffffffffffffffffffffffffffffff161415151561294a57600080fd5b61295482826127af565b15151561296057600080fd5b60018260000160008373ffffffffffffffffffffffffffffffffffffffff1673ffffffffffffffffffffffffffffffffffffffff16815260200190815260200160002060006101000a81548160ff0219169083151502179055505050565b600073ffffffffffffffffffffffffffffffffffffffff168173ffffffffffffffffffffffffffffffffffffffff16141515156129fa57600080fd5b612a0482826127af565b1515612a0f57600080fd5b60008260000160008373ffffffffffffffffffffffffffffffffffffffff1673ffffffffffffffffffffffffffffffffffffffff16815260200190815260200160002060006101000a81548160ff0219169083151502179055505050565b6101e0604051908101604052806000815260200160008152602001600073ffffffffffffffffffffffffffffffffffffffff168152602001600073ffffffffffffffffffffffffffffffffffffffff1681526020016060815260200160608152602001606081526020016060815260200160008152602001606081526020016000815260200160006007811115612b0057fe5b8152602001600073ffffffffffffffffffffffffffffffffffffffff168152602001600073ffffffffffffffffffffffffffffffffffffffff168152602001600073ffffffffffffffffffffffffffffffffffffffff1681525090565b828054600181600116156101000203166002900490600052602060002090601f016020900481019282601f10612b9e57805160ff1916838001178555612bcc565b82800160010185558215612bcc579182015b82811115612bcb578251825591602001919060010190612bb0565b5b509050612bd99190612bdd565b5090565b612bff91905b80821115612bfb576000816000905550600101612be3565b5090565b905600a165627a7a72305820d82a8b973ad70a099a631cb13813c483089902951e4e7543f40d76b212d28eb50029",
  "source": "pragma solidity ^0.4.24;\r\n\r\nimport \"../wineccesscontrol/ConsumerRole.sol\";\r\nimport \"../wineccesscontrol/RetailerRole.sol\";\r\n\r\n// Define a contract 'Supplychain'\r\ncontract SupplyChain is ConsumerRole, RetailerRole {\r\n\r\n  \r\n  // Define 'owner'\r\n  address owner;\r\n\r\n  // Define a variable called 'upc' for Universal Product Code (UPC)\r\n  uint  upc;\r\n\r\n  // Define a variable called 'sku' for Stock Keeping Unit (SKU)\r\n  uint  sku;\r\n\r\n  // Define a public mapping 'items' that maps the UPC to an Item.\r\n  mapping (uint => Item) items;\r\n\r\n  // Define a public mapping 'itemsHistory' that maps the UPC to an array of TxHash, \r\n  // that track its journey through the supply chain -- to be sent from DApp.\r\n  mapping (uint => string[]) itemsHistory;\r\n\r\n\r\n\r\n  \r\n  // Define enum 'State' with the following values:\r\n  enum State \r\n  { \r\n    Harvested,  // 0\r\n    Processed,  // 1\r\n    Packed,     // 2\r\n    ForSale,    // 3\r\n    Sold,       // 4\r\n    Shipped,    // 5\r\n    Received,   // 6\r\n    Purchased   // 7\r\n    }\r\n\r\n  State constant defaultState = State.Harvested;\r\n\r\n  // Define a struct 'Item' with the following fields:\r\n  struct Item {\r\n    uint    sku;  // Stock Keeping Unit (SKU)\r\n    uint    upc; // Universal Product Code (UPC), generated by the GrapeGrower, goes on the package, can be verified by the Consumer\r\n    address ownerID;  // Metamask-Ethereum address of the current owner as the product moves through 8 stages\r\n    address originGrapeGrowerID; // Metamask-Ethereum address of the GrapeGrower\r\n    string  originGrapeGrowerName; // GrapeGrower Name\r\n    string  originGrapeGrowerInformation;  // GrapeGrower Information\r\n    string  originGrapeGrowerLatitude; // GrapeGrower Latitude\r\n    string  originGrapeGrowerLongitude;  // GrapeGrower Longitude\r\n    uint    productID;  // Product ID potentially a combination of upc + sku\r\n    string  productNotes; // Product Notes\r\n    uint    productPrice; // Product Price\r\n    State   itemState;  // Product State as represented in the enum above\r\n    address distributorID;  // Metamask-Ethereum address of the Distributor\r\n    address retailerID; // Metamask-Ethereum address of the Retailer\r\n    address consumerID; // Metamask-Ethereum address of the Consumer\r\n  }\r\n\r\n  // Define 8 events with the same 8 state values and accept 'upc' as input argument\r\n  event Harvested(uint upc);\r\n  event Processed(uint upc);\r\n  event Packed(uint upc);\r\n  event ForSale(uint upc);\r\n  event Sold(uint upc);\r\n  event Shipped(uint upc);\r\n  event Received(uint upc);\r\n  event Purchased(uint upc);\r\n\r\n  // Define a modifer that checks to see if msg.sender == owner of the contract\r\n  modifier onlyOwner() {\r\n    require(msg.sender == owner);\r\n    _;\r\n  }\r\n\r\n  // Define a modifer that verifies the Caller\r\n  modifier verifyCaller (address _address) {\r\n    require(msg.sender == _address); \r\n    _;\r\n  }\r\n\r\n  // Define a modifier that checks if the paid amount is sufficient to cover the price\r\n  modifier paidEnough(uint _price) { \r\n    require(msg.value >= _price); \r\n    _;\r\n  }\r\n  \r\n  // Define a modifier that checks the price and refunds the remaining balance\r\n  modifier checkValue(uint _upc) {\r\n    _;\r\n    uint _price = items[_upc].productPrice;\r\n    uint amountToReturn = msg.value - _price;\r\n    items[_upc].consumerID.transfer(amountToReturn);\r\n  }\r\n\r\n  // Define a modifier that checks if an item.state of a upc is Harvested\r\n  modifier harvested(uint _upc) {\r\n    require(items[_upc].itemState == State.Harvested);\r\n    _;\r\n  }\r\n\r\n  // Define a modifier that checks if an item.state of a upc is Processed\r\n  modifier processed(uint _upc) {\r\n     require(items[_upc].itemState == State.Processed);     \r\n    _;\r\n  }\r\n  \r\n  // Define a modifier that checks if an item.state of a upc is Packed\r\n  modifier packed(uint _upc) {\r\nrequire(items[_upc].itemState == State.Packed);   \r\n    _;\r\n  }\r\n\r\n  // Define a modifier that checks if an item.state of a upc is ForSale\r\n  modifier forSale(uint _upc) {\r\nrequire(items[_upc].itemState == State.ForSale);   \r\n    _;\r\n  }\r\n\r\n  // Define a modifier that checks if an item.state of a upc is Sold\r\n  modifier sold(uint _upc) {\r\nrequire(items[_upc].itemState == State.Sold);   \r\n    _;\r\n  }\r\n  \r\n  // Define a modifier that checks if an item.state of a upc is Shipped\r\n  modifier shipped(uint _upc) {\r\nrequire(items[_upc].itemState == State.Shipped);   \r\n    _;\r\n  }\r\n\r\n  // Define a modifier that checks if an item.state of a upc is Received\r\n  modifier received(uint _upc) {\r\n require(items[_upc].itemState == State.Received);   \r\n    _;\r\n  }\r\n\r\n  // Define a modifier that checks if an item.state of a upc is Purchased\r\n   modifier purchased(uint _upc) {\r\n  require(items[_upc].itemState == State.Purchased);     \r\n    _;\r\n  }\r\n\r\n  // In the constructor set 'owner' to the address that instantiated the contract\r\n  // and set 'sku' to 1\r\n  // and set 'upc' to 1\r\n  constructor() public payable {\r\n    owner = msg.sender;\r\n    sku = 1;\r\n    upc = 1;\r\n  }\r\n\r\n  // Define a function 'kill' if required\r\n  function kill() public {\r\n    if (msg.sender == owner) {\r\n      selfdestruct(owner);\r\n    }\r\n  }\r\n\r\n  // Define a function 'harvestItem' that allows a GrapeGrower to mark an item 'Harvested'\r\n  function harvestItem(uint _upc, address _originGrapeGrowerID, string _originGrapeGrowerName, string _originGrapeGrowerInformation,\r\n   string  _originGrapeGrowerLatitude, string  _originGrapeGrowerLongitude, string  _productNotes) public \r\n  {\r\n    // Add the new item as part of Harvest\r\n       items[_upc].ownerID= _originGrapeGrowerID;\r\n    items[_upc].originGrapeGrowerName = _originGrapeGrowerName;\r\n       items[_upc].originGrapeGrowerInformation= _originGrapeGrowerInformation;\r\n    items[_upc].originGrapeGrowerLatitude = _originGrapeGrowerLatitude;\r\n       items[_upc].originGrapeGrowerLongitude= _originGrapeGrowerLongitude;\r\n    items[_upc].productNotes = _productNotes;\r\n    items[_upc].itemState = State.Harvested;\r\n    // Increment sku\r\n    sku = sku + 1;\r\n    // Emit the appropriate event\r\n   emit Harvested(_upc);\r\n  }\r\n\r\n  // Define a function 'processtItem' that allows a GrapeGrower to mark an item 'Processed'\r\n  function processItem(uint _upc) public harvested(_upc) verifyCaller(items[_upc].ownerID)\r\n  // Call modifier to check if upc has passed previous supply chain stage\r\n     \r\n  // Call modifier to verify caller of this function\r\n\r\n  {\r\n    // Update the appropriate fields\r\n     items[_upc].ownerID= items[_upc].originGrapeGrowerID;\r\n    items[_upc].originGrapeGrowerID = items[_upc].originGrapeGrowerID;\r\n    items[_upc].itemState = State.Processed;\r\n    // Emit the appropriate event\r\n emit   Processed(_upc);\r\n  }\r\n\r\n  // Define a function 'packItem' that allows a GrapeGrower to mark an item 'Packed'\r\n  function packItem(uint _upc) public processed(_upc) verifyCaller(items[_upc].ownerID)\r\n  // Call modifier to check if upc has passed previous supply chain stage\r\n \r\n  // Call modifier to verify caller of this function\r\n \r\n  {\r\n     \r\n       \r\n    // Update the appropriate fields\r\n     items[_upc].ownerID= items[_upc].originGrapeGrowerID;\r\n    items[_upc].originGrapeGrowerID = items[_upc].originGrapeGrowerID;\r\n    items[_upc].itemState = State.Packed;\r\n    // Emit the appropriate event\r\n  emit  Packed(_upc);  \r\n  }\r\n\r\n  // Define a function 'sellItem' that allows a GrapeGrower to mark an item 'ForSale'\r\n  function sellItem(uint _upc, uint _price) public  packed(_upc) verifyCaller(items[_upc].ownerID)\r\n  // Call modifier to check if upc has passed previous supply chain stage\r\n  \r\n  // Call modifier to verify caller of this function\r\n  \r\n  {  \r\n       \r\n    // Update the appropriate fields\r\n     items[_upc].ownerID= items[_upc].originGrapeGrowerID;\r\n    items[_upc].originGrapeGrowerID = items[_upc].originGrapeGrowerID;\r\n    items[_upc].productPrice =  _price;\r\n     items[_upc].itemState == State.ForSale;\r\n    // Emit the appropriate event\r\n    emit   ForSale(_upc);\r\n  }\r\n\r\n  // Define a function 'buyItem' that allows the disributor to mark an item 'Sold'\r\n  // Use the above defined modifiers to check if the item is available for sale, if the buyer has paid enough, \r\n  // and any excess ether sent is refunded back to the buyer\r\n  function buyItem(uint _upc) public payable   forSale(_upc)    paidEnough(_upc)   checkValue(_upc)\r\n    // Call modifier to check if upc has passed previous supply chain stage\r\n    \r\n    // Call modifer to check if buyer has paid enough\r\n    \r\n    // Call modifer to send any excess ether back to buyer\r\n    \r\n    {\r\n     \r\n    // Update the appropriate fields - ownerID, distributorID, itemState\r\n   items[_upc].ownerID= items[_upc].distributorID;\r\n    items[_upc].distributorID = items[_upc].distributorID;\r\n    items[_upc].itemState == State.Sold;  \r\n\r\n    // Transfer money to GrapeGrower\r\n    address _sender = items[_upc].ownerID;\r\n    _sender.transfer(msg.value);\r\n    // emit the appropriate event\r\n  emit  Sold(_upc);\r\n  }\r\n\r\n  // Define a function 'shipItem' that allows the distributor to mark an item 'Shipped'\r\n  // Use the above modifers to check if the item is sold\r\n  function shipItem(uint _upc) public sold(_upc)   verifyCaller(items[_upc].ownerID)\r\n    // Call modifier to check if upc has passed previous supply chain stage\r\n    \r\n    // Call modifier to verify caller of this function\r\n    \r\n    {\r\n       \r\n     \r\n    // Update the appropriate fields\r\n   items[_upc].ownerID= items[_upc].distributorID;\r\n   items[_upc].distributorID = items[upc].distributorID;\r\n   items[_upc].itemState == State.Shipped;\r\n    // Emit the appropriate event\r\n  emit    Shipped(_upc);\r\n  }\r\n\r\n  // Define a function 'receiveItem' that allows the retailer to mark an item 'Received'\r\n  // Use the above modifiers to check if the item is shipped\r\n  function receiveItem(uint _upc) public shipped(_upc) onlyRetailer()\r\n    // Call modifier to check if upc has passed previous supply chain stage\r\n    \r\n    // Access Control List enforced by calling Smart Contract / DApp\r\n    {\r\n        \r\n    // Update the appropriate fields - ownerID, retailerID, itemState\r\n       items[_upc].ownerID= items[_upc].retailerID;\r\n    items[_upc].retailerID = items[upc].retailerID;\r\n   items[_upc].itemState == State.Received;\r\n    // Emit the appropriate event\r\n  emit  Received(_upc);\r\n  }\r\n\r\n  // Define a function 'purchaseItem' that allows the consumer to mark an item 'Purchased'\r\n  // Use the above modifiers to check if the item is received\r\n  function purchaseItem(uint _upc) public received(_upc)  onlyConsumer()\r\n    // Call modifier to check if upc has passed previous supply chain stage\r\n    \r\n    // Access Control List enforced by calling Smart Contract / DApp\r\n    {\r\n  \r\n\r\n    // Update the appropriate fields - ownerID, consumerID, itemState\r\n     items[_upc].ownerID= items[_upc].consumerID;\r\n    items[_upc].consumerID = items[upc].consumerID;\r\n    items[_upc].itemState == State.Purchased;\r\n    // Emit the appropriate event\r\nemit    Purchased(_upc);\r\n  }\r\n\r\n  // Define a function 'fetchItemBufferOne' that fetches the data\r\n  function fetchItemBufferOne(uint _upc) public view returns \r\n  (\r\n  uint    itemSKU,\r\n  uint    itemUPC,\r\n  address ownerID,\r\n  address originGrapeGrowerID,\r\n  string  originGrapeGrowerName,\r\n  string  originGrapeGrowerInformation,\r\n  string  originGrapeGrowerLatitude,\r\n  string  originGrapeGrowerLongitude\r\n  ) \r\n  {\r\n  // Assign values to the 8 parameters\r\n  \r\n      Item memory  bupc = items[_upc];\r\n  return \r\n  (\r\n  itemSKU = bupc.sku,\r\n  itemUPC = _upc,\r\n   ownerID = bupc.ownerID,\r\n  originGrapeGrowerID =bupc.originGrapeGrowerID,\r\n  originGrapeGrowerName = bupc.originGrapeGrowerName,\r\n  originGrapeGrowerInformation = bupc.originGrapeGrowerInformation,\r\n  originGrapeGrowerLatitude = bupc.originGrapeGrowerLatitude,\r\n  originGrapeGrowerLongitude = bupc.originGrapeGrowerLongitude\r\n  );\r\n  }\r\n\r\n  // Define a function 'fetchItemBufferTwo' that fetches the data\r\n  function fetchItemBufferTwo(uint _upc) public view returns \r\n  (\r\n  uint    itemSKU,\r\n  uint    itemUPC,\r\n  uint    productID,\r\n  string  productNotes,\r\n  uint    productPrice,\r\n  uint    itemState,\r\n  address distributorID,\r\n  address retailerID,\r\n  address consumerID\r\n  ) \r\n  {\r\n    // Assign values to the 9 parameters\r\n  \r\n    Item memory  ups = items[_upc];\r\n  return \r\n  (\r\n  itemSKU = ups.sku,\r\n  itemUPC = _upc,\r\n  productID = ups.productID,\r\n  productNotes = ups.productNotes,\r\n  productPrice = ups.productPrice,\r\n  itemState = 0,\r\n   distributorID = ups.distributorID,\r\n   retailerID = ups.retailerID,\r\n   consumerID = ups.consumerID\r\n  );\r\n  }\r\n}\r\n",
  "sourcePath": "D:\\repo\\supply_chain_wine\\contracts\\winebase\\SupplyChain.sol",
  "compiler": {
    "name": "solc",
    "version": "0.4.25+commit.59dbf8f1.Emscripten.clang"
  },
  "schemaVersion": "2.0.2",
  "updatedAt": "2019-03-22T03:33:49.230Z"
}