{
  "contractName": "SupplyChain",
  "abi": [
    {
      "inputs": [],
      "payable": true,
      "stateMutability": "payable",
      "type": "constructor"
    },
    {
      "anonymous": false,
      "inputs": [
        {
          "indexed": false,
          "name": "upc",
          "type": "uint256"
        }
      ],
      "name": "Harvested",
      "type": "event"
    },
    {
      "anonymous": false,
      "inputs": [
        {
          "indexed": false,
          "name": "upc",
          "type": "uint256"
        }
      ],
      "name": "Processed",
      "type": "event"
    },
    {
      "anonymous": false,
      "inputs": [
        {
          "indexed": false,
          "name": "upc",
          "type": "uint256"
        }
      ],
      "name": "Packed",
      "type": "event"
    },
    {
      "anonymous": false,
      "inputs": [
        {
          "indexed": false,
          "name": "upc",
          "type": "uint256"
        }
      ],
      "name": "ForSale",
      "type": "event"
    },
    {
      "anonymous": false,
      "inputs": [
        {
          "indexed": false,
          "name": "upc",
          "type": "uint256"
        }
      ],
      "name": "Sold",
      "type": "event"
    },
    {
      "anonymous": false,
      "inputs": [
        {
          "indexed": false,
          "name": "upc",
          "type": "uint256"
        }
      ],
      "name": "Shipped",
      "type": "event"
    },
    {
      "anonymous": false,
      "inputs": [
        {
          "indexed": false,
          "name": "upc",
          "type": "uint256"
        }
      ],
      "name": "Received",
      "type": "event"
    },
    {
      "anonymous": false,
      "inputs": [
        {
          "indexed": false,
          "name": "upc",
          "type": "uint256"
        }
      ],
      "name": "Purchased",
      "type": "event"
    },
    {
      "constant": false,
      "inputs": [],
      "name": "kill",
      "outputs": [],
      "payable": false,
      "stateMutability": "nonpayable",
      "type": "function"
    },
    {
      "constant": false,
      "inputs": [
        {
          "name": "_upc",
          "type": "uint256"
        },
        {
          "name": "_originGrapeGrowerID",
          "type": "address"
        },
        {
          "name": "_originGrapeGrowerName",
          "type": "string"
        },
        {
          "name": "_originGrapeGrowerInformation",
          "type": "string"
        },
        {
          "name": "_originGrapeGrowerLatitude",
          "type": "string"
        },
        {
          "name": "_originGrapeGrowerLongitude",
          "type": "string"
        },
        {
          "name": "_productNotes",
          "type": "string"
        }
      ],
      "name": "harvestItem",
      "outputs": [],
      "payable": false,
      "stateMutability": "nonpayable",
      "type": "function"
    },
    {
      "constant": false,
      "inputs": [
        {
          "name": "_upc",
          "type": "uint256"
        }
      ],
      "name": "processItem",
      "outputs": [],
      "payable": false,
      "stateMutability": "nonpayable",
      "type": "function"
    },
    {
      "constant": false,
      "inputs": [
        {
          "name": "_upc",
          "type": "uint256"
        }
      ],
      "name": "packItem",
      "outputs": [],
      "payable": false,
      "stateMutability": "nonpayable",
      "type": "function"
    },
    {
      "constant": false,
      "inputs": [
        {
          "name": "_upc",
          "type": "uint256"
        },
        {
          "name": "_price",
          "type": "uint256"
        }
      ],
      "name": "sellItem",
      "outputs": [],
      "payable": false,
      "stateMutability": "nonpayable",
      "type": "function"
    },
    {
      "constant": false,
      "inputs": [
        {
          "name": "_upc",
          "type": "uint256"
        }
      ],
      "name": "buyItem",
      "outputs": [],
      "payable": true,
      "stateMutability": "payable",
      "type": "function"
    },
    {
      "constant": false,
      "inputs": [
        {
          "name": "_upc",
          "type": "uint256"
        }
      ],
      "name": "shipItem",
      "outputs": [],
      "payable": false,
      "stateMutability": "nonpayable",
      "type": "function"
    },
    {
      "constant": false,
      "inputs": [
        {
          "name": "_upc",
          "type": "uint256"
        }
      ],
      "name": "receiveItem",
      "outputs": [],
      "payable": false,
      "stateMutability": "nonpayable",
      "type": "function"
    },
    {
      "constant": false,
      "inputs": [
        {
          "name": "_upc",
          "type": "uint256"
        }
      ],
      "name": "purchaseItem",
      "outputs": [],
      "payable": false,
      "stateMutability": "nonpayable",
      "type": "function"
    },
    {
      "constant": true,
      "inputs": [
        {
          "name": "_upc",
          "type": "uint256"
        }
      ],
      "name": "fetchItemBufferOne",
      "outputs": [
        {
          "name": "itemSKU",
          "type": "uint256"
        },
        {
          "name": "itemUPC",
          "type": "uint256"
        },
        {
          "name": "ownerID",
          "type": "address"
        },
        {
          "name": "originGrapeGrowerID",
          "type": "address"
        },
        {
          "name": "originGrapeGrowerName",
          "type": "string"
        },
        {
          "name": "originGrapeGrowerInformation",
          "type": "string"
        },
        {
          "name": "originGrapeGrowerLatitude",
          "type": "string"
        },
        {
          "name": "originGrapeGrowerLongitude",
          "type": "string"
        }
      ],
      "payable": false,
      "stateMutability": "view",
      "type": "function"
    },
    {
      "constant": true,
      "inputs": [
        {
          "name": "_upc",
          "type": "uint256"
        }
      ],
      "name": "fetchItemBufferTwo",
      "outputs": [
        {
          "name": "itemSKU",
          "type": "uint256"
        },
        {
          "name": "itemUPC",
          "type": "uint256"
        },
        {
          "name": "productID",
          "type": "uint256"
        },
        {
          "name": "productNotes",
          "type": "string"
        },
        {
          "name": "productPrice",
          "type": "uint256"
        },
        {
          "name": "itemState",
          "type": "uint256"
        },
        {
          "name": "distributorID",
          "type": "address"
        },
        {
          "name": "retailerID",
          "type": "address"
        },
        {
          "name": "consumerID",
          "type": "address"
        }
      ],
      "payable": false,
      "stateMutability": "view",
      "type": "function"
    }
  ],
  "bytecode": "0x6080604052336000806101000a81548173ffffffffffffffffffffffffffffffffffffffff021916908373ffffffffffffffffffffffffffffffffffffffff1602179055506001600281905550600180819055506108bc806100626000396000f3006080604052600436106100af576000357c0100000000000000000000000000000000000000000000000000000000900463ffffffff1680632d923561146100b457806341c0e1b5146100eb57806349dae7661461010257806366225ff91461012f57806377c4591314610291578063a26be999146104ef578063bdd8a6a81461051c578063d38ea5bf146106c7578063e7fb74c7146106f4578063f30fc48014610714578063f61c899a14610741575b600080fd5b3480156100c057600080fd5b506100e9600480360381019080803590602001909291908035906020019092919050505061076e565b005b3480156100f757600080fd5b50610100610772565b005b34801561010e57600080fd5b5061012d60048036038101908080359060200190929190505050610803565b005b34801561013b57600080fd5b5061015a60048036038101908080359060200190929190505050610806565b604051808a8152602001898152602001888152602001806020018781526020018681526020018573ffffffffffffffffffffffffffffffffffffffff1673ffffffffffffffffffffffffffffffffffffffff1681526020018473ffffffffffffffffffffffffffffffffffffffff1673ffffffffffffffffffffffffffffffffffffffff1681526020018373ffffffffffffffffffffffffffffffffffffffff1673ffffffffffffffffffffffffffffffffffffffff168152602001828103825288818151815260200191508051906020019080838360005b8381101561024e578082015181840152602081019050610233565b50505050905090810190601f16801561027b5780820380516001836020036101000a031916815260200191505b509a505050505050505050505060405180910390f35b34801561029d57600080fd5b506102bc6004803603810190808035906020019092919050505061083d565b604051808981526020018881526020018773ffffffffffffffffffffffffffffffffffffffff1673ffffffffffffffffffffffffffffffffffffffff1681526020018673ffffffffffffffffffffffffffffffffffffffff1673ffffffffffffffffffffffffffffffffffffffff16815260200180602001806020018060200180602001858103855289818151815260200191508051906020019080838360005b8381101561037857808201518184015260208101905061035d565b50505050905090810190601f1680156103a55780820380516001836020036101000a031916815260200191505b50858103845288818151815260200191508051906020019080838360005b838110156103de5780820151818401526020810190506103c3565b50505050905090810190601f16801561040b5780820380516001836020036101000a031916815260200191505b50858103835287818151815260200191508051906020019080838360005b83811015610444578082015181840152602081019050610429565b50505050905090810190601f1680156104715780820380516001836020036101000a031916815260200191505b50858103825286818151815260200191508051906020019080838360005b838110156104aa57808201518184015260208101905061048f565b50505050905090810190601f1680156104d75780820380516001836020036101000a031916815260200191505b509c5050505050505050505050505060405180910390f35b3480156104fb57600080fd5b5061051a6004803603810190808035906020019092919050505061086c565b005b34801561052857600080fd5b506106c560048036038101908080359060200190929190803573ffffffffffffffffffffffffffffffffffffffff169060200190929190803590602001908201803590602001908080601f0160208091040260200160405190810160405280939291908181526020018383808284378201915050505050509192919290803590602001908201803590602001908080601f0160208091040260200160405190810160405280939291908181526020018383808284378201915050505050509192919290803590602001908201803590602001908080601f0160208091040260200160405190810160405280939291908181526020018383808284378201915050505050509192919290803590602001908201803590602001908080601f0160208091040260200160405190810160405280939291908181526020018383808284378201915050505050509192919290803590602001908201803590602001908080601f016020809104026020016040519081016040528093929190818152602001838380828437820191505050505050919291929050505061086f565b005b3480156106d357600080fd5b506106f260048036038101908080359060200190929190505050610884565b005b61071260048036038101908080359060200190929190505050610887565b005b34801561072057600080fd5b5061073f6004803603810190808035906020019092919050505061088a565b005b34801561074d57600080fd5b5061076c6004803603810190808035906020019092919050505061088d565b005b5050565b6000809054906101000a900473ffffffffffffffffffffffffffffffffffffffff1673ffffffffffffffffffffffffffffffffffffffff163373ffffffffffffffffffffffffffffffffffffffff161415610801576000809054906101000a900473ffffffffffffffffffffffffffffffffffffffff1673ffffffffffffffffffffffffffffffffffffffff16ff5b565b50565b6000806000606060008060008060008888888888888888889850985098509850985098509850985098509193959799909294969850565b600080600080606080606080878787878787878797509750975097509750975097509750919395975091939597565b50565b60016002540160028190555050505050505050565b50565b50565b50565b505600a165627a7a72305820e36db8e01a07955737411a14ef8cf06ad5c6f62df1fcd064bdf29bb4e82f70d50029",
  "source": "pragma solidity ^0.4.24;\r\n// Define a contract 'Supplychain'\r\ncontract SupplyChain {\r\n\r\n  // Define 'owner'\r\n  address owner;\r\n\r\n  // Define a variable called 'upc' for Universal Product Code (UPC)\r\n  uint  upc;\r\n\r\n  // Define a variable called 'sku' for Stock Keeping Unit (SKU)\r\n  uint  sku;\r\n\r\n  // Define a public mapping 'items' that maps the UPC to an Item.\r\n  mapping (uint => Item) items;\r\n\r\n  // Define a public mapping 'itemsHistory' that maps the UPC to an array of TxHash, \r\n  // that track its journey through the supply chain -- to be sent from DApp.\r\n  mapping (uint => string[]) itemsHistory;\r\n  \r\n  // Define enum 'State' with the following values:\r\n  enum State \r\n  { \r\n    Harvested,  // 0\r\n    Processed,  // 1\r\n    Packed,     // 2\r\n    ForSale,    // 3\r\n    Sold,       // 4\r\n    Shipped,    // 5\r\n    Received,   // 6\r\n    Purchased   // 7\r\n    }\r\n\r\n  State constant defaultState = State.Harvested;\r\n\r\n  // Define a struct 'Item' with the following fields:\r\n  struct Item {\r\n    uint    sku;  // Stock Keeping Unit (SKU)\r\n    uint    upc; // Universal Product Code (UPC), generated by the GrapeGrower, goes on the package, can be verified by the Consumer\r\n    address ownerID;  // Metamask-Ethereum address of the current owner as the product moves through 8 stages\r\n    address originGrapeGrowerID; // Metamask-Ethereum address of the GrapeGrower\r\n    string  originGrapeGrowerName; // GrapeGrower Name\r\n    string  originGrapeGrowerInformation;  // GrapeGrower Information\r\n    string  originGrapeGrowerLatitude; // GrapeGrower Latitude\r\n    string  originGrapeGrowerLongitude;  // GrapeGrower Longitude\r\n    uint    productID;  // Product ID potentially a combination of upc + sku\r\n    string  productNotes; // Product Notes\r\n    uint    productPrice; // Product Price\r\n    State   itemState;  // Product State as represented in the enum above\r\n    address distributorID;  // Metamask-Ethereum address of the Distributor\r\n    address retailerID; // Metamask-Ethereum address of the Retailer\r\n    address consumerID; // Metamask-Ethereum address of the Consumer\r\n  }\r\n\r\n  // Define 8 events with the same 8 state values and accept 'upc' as input argument\r\n  event Harvested(uint upc);\r\n  event Processed(uint upc);\r\n  event Packed(uint upc);\r\n  event ForSale(uint upc);\r\n  event Sold(uint upc);\r\n  event Shipped(uint upc);\r\n  event Received(uint upc);\r\n  event Purchased(uint upc);\r\n\r\n  // Define a modifer that checks to see if msg.sender == owner of the contract\r\n  modifier onlyOwner() {\r\n    require(msg.sender == owner);\r\n    _;\r\n  }\r\n\r\n  // Define a modifer that verifies the Caller\r\n  modifier verifyCaller (address _address) {\r\n    require(msg.sender == _address); \r\n    _;\r\n  }\r\n\r\n  // Define a modifier that checks if the paid amount is sufficient to cover the price\r\n  modifier paidEnough(uint _price) { \r\n    require(msg.value >= _price); \r\n    _;\r\n  }\r\n  \r\n  // Define a modifier that checks the price and refunds the remaining balance\r\n  modifier checkValue(uint _upc) {\r\n    _;\r\n    uint _price = items[_upc].productPrice;\r\n    uint amountToReturn = msg.value - _price;\r\n    items[_upc].consumerID.transfer(amountToReturn);\r\n  }\r\n\r\n  // Define a modifier that checks if an item.state of a upc is Harvested\r\n  modifier harvested(uint _upc) {\r\n    require(items[_upc].itemState == State.Harvested);\r\n    _;\r\n  }\r\n\r\n  // Define a modifier that checks if an item.state of a upc is Processed\r\n  modifier processed(uint _upc) {\r\n\r\n    _;\r\n  }\r\n  \r\n  // Define a modifier that checks if an item.state of a upc is Packed\r\n  modifier packed(uint _upc) {\r\n\r\n    _;\r\n  }\r\n\r\n  // Define a modifier that checks if an item.state of a upc is ForSale\r\n  modifier forSale(uint _upc) {\r\n\r\n    _;\r\n  }\r\n\r\n  // Define a modifier that checks if an item.state of a upc is Sold\r\n  modifier sold(uint _upc) {\r\n\r\n    _;\r\n  }\r\n  \r\n  // Define a modifier that checks if an item.state of a upc is Shipped\r\n  modifier shipped(uint _upc) {\r\n\r\n    _;\r\n  }\r\n\r\n  // Define a modifier that checks if an item.state of a upc is Received\r\n  modifier received(uint _upc) {\r\n\r\n    _;\r\n  }\r\n\r\n  // Define a modifier that checks if an item.state of a upc is Purchased\r\n  modifier purchased(uint _upc) {\r\n    \r\n    _;\r\n  }\r\n\r\n  // In the constructor set 'owner' to the address that instantiated the contract\r\n  // and set 'sku' to 1\r\n  // and set 'upc' to 1\r\n  constructor() public payable {\r\n    owner = msg.sender;\r\n    sku = 1;\r\n    upc = 1;\r\n  }\r\n\r\n  // Define a function 'kill' if required\r\n  function kill() public {\r\n    if (msg.sender == owner) {\r\n      selfdestruct(owner);\r\n    }\r\n  }\r\n\r\n  // Define a function 'harvestItem' that allows a GrapeGrower to mark an item 'Harvested'\r\n  function harvestItem(uint _upc, address _originGrapeGrowerID, string _originGrapeGrowerName, string _originGrapeGrowerInformation, string  _originGrapeGrowerLatitude, string  _originGrapeGrowerLongitude, string  _productNotes) public \r\n  {\r\n    // Add the new item as part of Harvest\r\n    \r\n    // Increment sku\r\n    sku = sku + 1;\r\n    // Emit the appropriate event\r\n    \r\n  }\r\n\r\n  // Define a function 'processtItem' that allows a GrapeGrower to mark an item 'Processed'\r\n  function processItem(uint _upc) public \r\n  // Call modifier to check if upc has passed previous supply chain stage\r\n  \r\n  // Call modifier to verify caller of this function\r\n  \r\n  {\r\n    // Update the appropriate fields\r\n    \r\n    // Emit the appropriate event\r\n    \r\n  }\r\n\r\n  // Define a function 'packItem' that allows a GrapeGrower to mark an item 'Packed'\r\n  function packItem(uint _upc) public \r\n  // Call modifier to check if upc has passed previous supply chain stage\r\n  \r\n  // Call modifier to verify caller of this function\r\n  \r\n  {\r\n    // Update the appropriate fields\r\n    \r\n    // Emit the appropriate event\r\n    \r\n  }\r\n\r\n  // Define a function 'sellItem' that allows a GrapeGrower to mark an item 'ForSale'\r\n  function sellItem(uint _upc, uint _price) public \r\n  // Call modifier to check if upc has passed previous supply chain stage\r\n  \r\n  // Call modifier to verify caller of this function\r\n  \r\n  {\r\n    // Update the appropriate fields\r\n    \r\n    // Emit the appropriate event\r\n    \r\n  }\r\n\r\n  // Define a function 'buyItem' that allows the disributor to mark an item 'Sold'\r\n  // Use the above defined modifiers to check if the item is available for sale, if the buyer has paid enough, \r\n  // and any excess ether sent is refunded back to the buyer\r\n  function buyItem(uint _upc) public payable \r\n    // Call modifier to check if upc has passed previous supply chain stage\r\n    \r\n    // Call modifer to check if buyer has paid enough\r\n    \r\n    // Call modifer to send any excess ether back to buyer\r\n    \r\n    {\r\n    \r\n    // Update the appropriate fields - ownerID, distributorID, itemState\r\n    \r\n    // Transfer money to GrapeGrower\r\n    \r\n    // emit the appropriate event\r\n    \r\n  }\r\n\r\n  // Define a function 'shipItem' that allows the distributor to mark an item 'Shipped'\r\n  // Use the above modifers to check if the item is sold\r\n  function shipItem(uint _upc) public \r\n    // Call modifier to check if upc has passed previous supply chain stage\r\n    \r\n    // Call modifier to verify caller of this function\r\n    \r\n    {\r\n    // Update the appropriate fields\r\n    \r\n    // Emit the appropriate event\r\n    \r\n  }\r\n\r\n  // Define a function 'receiveItem' that allows the retailer to mark an item 'Received'\r\n  // Use the above modifiers to check if the item is shipped\r\n  function receiveItem(uint _upc) public \r\n    // Call modifier to check if upc has passed previous supply chain stage\r\n    \r\n    // Access Control List enforced by calling Smart Contract / DApp\r\n    {\r\n    // Update the appropriate fields - ownerID, retailerID, itemState\r\n    \r\n    // Emit the appropriate event\r\n    \r\n  }\r\n\r\n  // Define a function 'purchaseItem' that allows the consumer to mark an item 'Purchased'\r\n  // Use the above modifiers to check if the item is received\r\n  function purchaseItem(uint _upc) public \r\n    // Call modifier to check if upc has passed previous supply chain stage\r\n    \r\n    // Access Control List enforced by calling Smart Contract / DApp\r\n    {\r\n    // Update the appropriate fields - ownerID, consumerID, itemState\r\n    \r\n    // Emit the appropriate event\r\n    \r\n  }\r\n\r\n  // Define a function 'fetchItemBufferOne' that fetches the data\r\n  function fetchItemBufferOne(uint _upc) public view returns \r\n  (\r\n  uint    itemSKU,\r\n  uint    itemUPC,\r\n  address ownerID,\r\n  address originGrapeGrowerID,\r\n  string  originGrapeGrowerName,\r\n  string  originGrapeGrowerInformation,\r\n  string  originGrapeGrowerLatitude,\r\n  string  originGrapeGrowerLongitude\r\n  ) \r\n  {\r\n  // Assign values to the 8 parameters\r\n  \r\n    \r\n  return \r\n  (\r\n  itemSKU,\r\n  itemUPC,\r\n  ownerID,\r\n  originGrapeGrowerID,\r\n  originGrapeGrowerName,\r\n  originGrapeGrowerInformation,\r\n  originGrapeGrowerLatitude,\r\n  originGrapeGrowerLongitude\r\n  );\r\n  }\r\n\r\n  // Define a function 'fetchItemBufferTwo' that fetches the data\r\n  function fetchItemBufferTwo(uint _upc) public view returns \r\n  (\r\n  uint    itemSKU,\r\n  uint    itemUPC,\r\n  uint    productID,\r\n  string  productNotes,\r\n  uint    productPrice,\r\n  uint    itemState,\r\n  address distributorID,\r\n  address retailerID,\r\n  address consumerID\r\n  ) \r\n  {\r\n    // Assign values to the 9 parameters\r\n  \r\n    \r\n  return \r\n  (\r\n  itemSKU,\r\n  itemUPC,\r\n  productID,\r\n  productNotes,\r\n  productPrice,\r\n  itemState,\r\n  distributorID,\r\n  retailerID,\r\n  consumerID\r\n  );\r\n  }\r\n}\r\n",
  "sourcePath": "D:\\repo\\wine_supply_chain\\contracts\\winebase\\SupplyChain.sol",
  "compiler": {
    "name": "solc",
    "version": "0.4.25+commit.59dbf8f1.Emscripten.clang"
  },
  "schemaVersion": "2.0.2",
  "updatedAt": "2019-03-07T02:23:58.827Z"
}