{
  "contractName": "TransitCellarRole",
  "abi": [
    {
      "inputs": [],
      "payable": false,
      "stateMutability": "nonpayable",
      "type": "constructor"
    },
    {
      "anonymous": false,
      "inputs": [
        {
          "indexed": true,
          "name": "account",
          "type": "address"
        }
      ],
      "name": "TransitCellarRoleAdded",
      "type": "event"
    },
    {
      "anonymous": false,
      "inputs": [
        {
          "indexed": true,
          "name": "account",
          "type": "address"
        }
      ],
      "name": "TransitCellarRemoved",
      "type": "event"
    },
    {
      "constant": true,
      "inputs": [
        {
          "name": "account",
          "type": "address"
        }
      ],
      "name": "isTransitCellar",
      "outputs": [
        {
          "name": "",
          "type": "bool"
        }
      ],
      "payable": false,
      "stateMutability": "view",
      "type": "function"
    },
    {
      "constant": false,
      "inputs": [
        {
          "name": "account",
          "type": "address"
        }
      ],
      "name": "addTransitCellar",
      "outputs": [],
      "payable": false,
      "stateMutability": "nonpayable",
      "type": "function"
    },
    {
      "constant": false,
      "inputs": [],
      "name": "renounceTransitCellars",
      "outputs": [],
      "payable": false,
      "stateMutability": "nonpayable",
      "type": "function"
    }
  ],
  "bytecode": "0x608060405234801561001057600080fd5b506100293361002e640100000000026401000000009004565b6101e8565b61004f81600061009564010000000002610350179091906401000000009004565b8073ffffffffffffffffffffffffffffffffffffffff167f48b511fa7a928a71e5341f6612f77dc7d27c8eb2ec4ccdea279009da5b315df760405160405180910390a250565b600073ffffffffffffffffffffffffffffffffffffffff168173ffffffffffffffffffffffffffffffffffffffff16141515156100d157600080fd5b6100ea8282610154640100000000026401000000009004565b1515156100f657600080fd5b60018260000160008373ffffffffffffffffffffffffffffffffffffffff1673ffffffffffffffffffffffffffffffffffffffff16815260200190815260200160002060006101000a81548160ff0219169083151502179055505050565b60008073ffffffffffffffffffffffffffffffffffffffff168273ffffffffffffffffffffffffffffffffffffffff161415151561019157600080fd5b8260000160008373ffffffffffffffffffffffffffffffffffffffff1673ffffffffffffffffffffffffffffffffffffffff16815260200190815260200160002060009054906101000a900460ff16905092915050565b61042c806101f76000396000f300608060405260043610610057576000357c0100000000000000000000000000000000000000000000000000000000900463ffffffff1680630fb17a911461005c5780632a3619b8146100b7578063a1c17857146100ce575b600080fd5b34801561006857600080fd5b5061009d600480360381019080803573ffffffffffffffffffffffffffffffffffffffff169060200190929190505050610111565b604051808215151515815260200191505060405180910390f35b3480156100c357600080fd5b506100cc61012e565b005b3480156100da57600080fd5b5061010f600480360381019080803573ffffffffffffffffffffffffffffffffffffffff169060200190929190505050610139565b005b600061012782600061015990919063ffffffff16565b9050919050565b610137336101ed565b565b61014233610111565b151561014d57600080fd5b61015681610247565b50565b60008073ffffffffffffffffffffffffffffffffffffffff168273ffffffffffffffffffffffffffffffffffffffff161415151561019657600080fd5b8260000160008373ffffffffffffffffffffffffffffffffffffffff1673ffffffffffffffffffffffffffffffffffffffff16815260200190815260200160002060009054906101000a900460ff16905092915050565b6102018160006102a190919063ffffffff16565b8073ffffffffffffffffffffffffffffffffffffffff167fa9e2d977ef798fad32661ebd12b024dd46d2a8c0fa425583ac0e0c53fecca8f160405160405180910390a250565b61025b81600061035090919063ffffffff16565b8073ffffffffffffffffffffffffffffffffffffffff167f48b511fa7a928a71e5341f6612f77dc7d27c8eb2ec4ccdea279009da5b315df760405160405180910390a250565b600073ffffffffffffffffffffffffffffffffffffffff168173ffffffffffffffffffffffffffffffffffffffff16141515156102dd57600080fd5b6102e78282610159565b15156102f257600080fd5b60008260000160008373ffffffffffffffffffffffffffffffffffffffff1673ffffffffffffffffffffffffffffffffffffffff16815260200190815260200160002060006101000a81548160ff0219169083151502179055505050565b600073ffffffffffffffffffffffffffffffffffffffff168173ffffffffffffffffffffffffffffffffffffffff161415151561038c57600080fd5b6103968282610159565b1515156103a257600080fd5b60018260000160008373ffffffffffffffffffffffffffffffffffffffff1673ffffffffffffffffffffffffffffffffffffffff16815260200190815260200160002060006101000a81548160ff02191690831515021790555050505600a165627a7a723058204066cafd86a89049fb09fb25fdc7462e3df53f5690eec0918721bd7657d1566e0029",
  "source": "pragma solidity ^0.4.24;\r\n\r\n// Import the library 'Roles'\r\nimport \"./Roles.sol\";\r\n\r\n// Define a contract 'TransitCellarRole' to manage this role - add, remove, check\r\ncontract TransitCellarRole {\r\n  using Roles for Roles.Role;\r\n\r\n  // Define 2 events, one for Adding, and other for Removing\r\n  event TransitCellarRoleAdded(address indexed account);\r\n  event TransitCellarRemoved(address indexed account);\r\n\r\n  // Define a struct 'transitCellars' by inheriting from 'Roles' library, struct Role\r\n  Roles.Role private transitCellars;\r\n\r\n  // In the constructor make the address that deploys this contract the 1st farmer\r\n  constructor() public {\r\n    _addTransitCellar(msg.sender);\r\n  }\r\n\r\n  // Define a modifier that checks to see if msg.sender has the appropriate role\r\n  modifier onlyTransitCellar() {\r\n    require(isTransitCellar(msg.sender));\r\n    _;\r\n  }\r\n\r\n  // Define a function 'isTransitCellar' to check this role\r\n  function isTransitCellar(address account) public view returns (bool) {\r\n    return transitCellars.has(account);\r\n  }\r\n\r\n  // Define a function 'addTransitCellar' that adds this role\r\n  function addTransitCellar(address account) public onlyTransitCellar {\r\n    _addTransitCellar(account);\r\n  }\r\n\r\n  // Define a function 'renounceTransitCellars' to renounce this role\r\n  function renounceTransitCellars() public {\r\n    _removeTransitCellar(msg.sender);\r\n  }\r\n\r\n  // Define an internal function '_addTransitCellar' to add this role, called by 'addTransitCellar'\r\n  function _addTransitCellar(address account) internal {\r\n    transitCellars.add(account);\r\n    emit TransitCellarRoleAdded(account);\r\n  }\r\n\r\n  // Define an internal function '_removeTransitCellars' to remove this role, called by 'removeFarmer'\r\n  function _removeTransitCellar(address account) internal {\r\n    transitCellars.remove(account);\r\n    emit TransitCellarRemoved(account);\r\n  }\r\n}",
  "sourcePath": "D:\\repo\\supply_chain_wine\\contracts\\wineccesscontrol\\TransitCellarRole.sol",
  "compiler": {
    "name": "solc",
    "version": "0.4.25+commit.59dbf8f1.Emscripten.clang"
  },
  "schemaVersion": "2.0.2",
  "updatedAt": "2019-03-22T03:33:49.094Z"
}