{
  "contractName": "WineProducerRole",
  "abi": [
    {
      "inputs": [],
      "payable": false,
      "stateMutability": "nonpayable",
      "type": "constructor"
    },
    {
      "anonymous": false,
      "inputs": [
        {
          "indexed": true,
          "name": "account",
          "type": "address"
        }
      ],
      "name": "WineProducerAdded",
      "type": "event"
    },
    {
      "anonymous": false,
      "inputs": [
        {
          "indexed": true,
          "name": "account",
          "type": "address"
        }
      ],
      "name": "WineProducerRemoved",
      "type": "event"
    },
    {
      "constant": true,
      "inputs": [
        {
          "name": "account",
          "type": "address"
        }
      ],
      "name": "isWineProducer",
      "outputs": [
        {
          "name": "",
          "type": "bool"
        }
      ],
      "payable": false,
      "stateMutability": "view",
      "type": "function"
    },
    {
      "constant": false,
      "inputs": [
        {
          "name": "account",
          "type": "address"
        }
      ],
      "name": "addWineProducer",
      "outputs": [],
      "payable": false,
      "stateMutability": "nonpayable",
      "type": "function"
    },
    {
      "constant": false,
      "inputs": [],
      "name": "renounceFarmer",
      "outputs": [],
      "payable": false,
      "stateMutability": "nonpayable",
      "type": "function"
    }
  ],
  "bytecode": "0x608060405234801561001057600080fd5b506100293361002e640100000000026401000000009004565b6101e8565b61004f816000610095640100000000026102a1179091906401000000009004565b8073ffffffffffffffffffffffffffffffffffffffff167fcc4f4df734e28ebd516e1f174a79ee7e4f784860ed530899bab9fc95bd424ba560405160405180910390a250565b600073ffffffffffffffffffffffffffffffffffffffff168173ffffffffffffffffffffffffffffffffffffffff16141515156100d157600080fd5b6100ea8282610154640100000000026401000000009004565b1515156100f657600080fd5b60018260000160008373ffffffffffffffffffffffffffffffffffffffff1673ffffffffffffffffffffffffffffffffffffffff16815260200190815260200160002060006101000a81548160ff0219169083151502179055505050565b60008073ffffffffffffffffffffffffffffffffffffffff168273ffffffffffffffffffffffffffffffffffffffff161415151561019157600080fd5b8260000160008373ffffffffffffffffffffffffffffffffffffffff1673ffffffffffffffffffffffffffffffffffffffff16815260200190815260200160002060009054906101000a900460ff16905092915050565b61042c806101f76000396000f300608060405260043610610057576000357c0100000000000000000000000000000000000000000000000000000000900463ffffffff1680630f71fd721461005c57806375f954df1461009f57806380fc0ce4146100fa575b600080fd5b34801561006857600080fd5b5061009d600480360381019080803573ffffffffffffffffffffffffffffffffffffffff169060200190929190505050610111565b005b3480156100ab57600080fd5b506100e0600480360381019080803573ffffffffffffffffffffffffffffffffffffffff169060200190929190505050610131565b604051808215151515815260200191505060405180910390f35b34801561010657600080fd5b5061010f61014e565b005b61011a33610131565b151561012557600080fd5b61012e81610159565b50565b60006101478260006101b390919063ffffffff16565b9050919050565b61015733610247565b565b61016d8160006102a190919063ffffffff16565b8073ffffffffffffffffffffffffffffffffffffffff167fcc4f4df734e28ebd516e1f174a79ee7e4f784860ed530899bab9fc95bd424ba560405160405180910390a250565b60008073ffffffffffffffffffffffffffffffffffffffff168273ffffffffffffffffffffffffffffffffffffffff16141515156101f057600080fd5b8260000160008373ffffffffffffffffffffffffffffffffffffffff1673ffffffffffffffffffffffffffffffffffffffff16815260200190815260200160002060009054906101000a900460ff16905092915050565b61025b81600061035190919063ffffffff16565b8073ffffffffffffffffffffffffffffffffffffffff167ff163b74c47e2c675c9903c45787106e0cb544f15ddce4ddcf7564fd09cb5437860405160405180910390a250565b600073ffffffffffffffffffffffffffffffffffffffff168173ffffffffffffffffffffffffffffffffffffffff16141515156102dd57600080fd5b6102e782826101b3565b1515156102f357600080fd5b60018260000160008373ffffffffffffffffffffffffffffffffffffffff1673ffffffffffffffffffffffffffffffffffffffff16815260200190815260200160002060006101000a81548160ff0219169083151502179055505050565b600073ffffffffffffffffffffffffffffffffffffffff168173ffffffffffffffffffffffffffffffffffffffff161415151561038d57600080fd5b61039782826101b3565b15156103a257600080fd5b60008260000160008373ffffffffffffffffffffffffffffffffffffffff1673ffffffffffffffffffffffffffffffffffffffff16815260200190815260200160002060006101000a81548160ff02191690831515021790555050505600a165627a7a72305820a7b2094193b8fffb3419e4c8e65a789e0174f7b893e325763af23d7f17c0fbfc0029",
  "source": "pragma solidity ^0.4.24;\r\n\r\n// Import the library 'Roles'\r\nimport \"./Roles.sol\";\r\n\r\n// Define a contract 'FarmerRole' to manage this role - add, remove, check\r\ncontract WineProducerRole {\r\n  using Roles for Roles.Role;\r\n\r\n  // Define 2 events, one for Adding, and other for Removing\r\n  event WineProducerAdded(address indexed account);\r\n  event WineProducerRemoved(address indexed account);\r\n\r\n  // Define a struct 'wineProducers' by inheriting from 'Roles' library, struct Role\r\n  Roles.Role private wineProducers;\r\n\r\n  // In the constructor make the address that deploys this contract the 1st farmer\r\n  constructor() public {\r\n    _addWineProducer(msg.sender);\r\n  }\r\n\r\n  // Define a modifier that checks to see if msg.sender has the appropriate role\r\n  modifier onlyWineProducer() {\r\n    require(isWineProducer(msg.sender));\r\n    _;\r\n  }\r\n\r\n  // Define a function 'isWineProducer' to check this role\r\n  function isWineProducer(address account) public view returns (bool) {\r\n    return wineProducers.has(account);\r\n  }\r\n\r\n  // Define a function 'addWineProducer' that adds this role\r\n  function addWineProducer(address account) public onlyWineProducer {\r\n    _addWineProducer(account);\r\n  }\r\n\r\n  // Define a function 'renounceFarmer' to renounce this role\r\n  function renounceFarmer() public {\r\n    _removeWineProducer(msg.sender);\r\n  }\r\n\r\n  // Define an internal function '_addWineProducer' to add this role, called by 'addWineProducer'\r\n  function _addWineProducer(address account) internal {\r\n    wineProducers.add(account);\r\n    emit WineProducerAdded(account);\r\n  }\r\n\r\n  // Define an internal function '_removeWineProducer' to remove this role, called by 'removeFarmer'\r\n  function _removeWineProducer(address account) internal {\r\n    wineProducers.remove(account);\r\n    emit WineProducerRemoved(account);\r\n  }\r\n}",
  "sourcePath": "D:\\repo\\wine_supply_chain\\contracts\\wineccesscontrol\\WineProducerRole.sol",
  "compiler": {
    "name": "solc",
    "version": "0.4.25+commit.59dbf8f1.Emscripten.clang"
  },
  "schemaVersion": "2.0.2",
  "updatedAt": "2019-03-07T02:23:58.799Z"
}